{
    "contractName": "ERC721",
    "abi": [
        {
            "inputs": [
                {
                    "internalType": "string",
                    "name": "_name",
                    "type": "string"
                },
                {
                    "internalType": "string",
                    "name": "_symbol",
                    "type": "string"
                }
            ],
            "stateMutability": "nonpayable",
            "type": "constructor"
        },
        {
            "anonymous": false,
            "inputs": [
                {
                    "indexed": true,
                    "internalType": "address",
                    "name": "owner",
                    "type": "address"
                },
                {
                    "indexed": true,
                    "internalType": "address",
                    "name": "approved",
                    "type": "address"
                },
                {
                    "indexed": true,
                    "internalType": "uint256",
                    "name": "tokenId",
                    "type": "uint256"
                }
            ],
            "name": "Approval",
            "type": "event"
        },
        {
            "anonymous": false,
            "inputs": [
                {
                    "indexed": true,
                    "internalType": "address",
                    "name": "owner",
                    "type": "address"
                },
                {
                    "indexed": true,
                    "internalType": "address",
                    "name": "operator",
                    "type": "address"
                },
                {
                    "indexed": false,
                    "internalType": "bool",
                    "name": "approved",
                    "type": "bool"
                }
            ],
            "name": "ApprovalForAll",
            "type": "event"
        },
        {
            "anonymous": false,
            "inputs": [
                {
                    "indexed": true,
                    "internalType": "address",
                    "name": "from",
                    "type": "address"
                },
                {
                    "indexed": true,
                    "internalType": "address",
                    "name": "to",
                    "type": "address"
                },
                {
                    "indexed": true,
                    "internalType": "uint256",
                    "name": "tokenId",
                    "type": "uint256"
                }
            ],
            "name": "Transfer",
            "type": "event"
        },
        {
            "inputs": [],
            "name": "Name",
            "outputs": [
                {
                    "internalType": "string",
                    "name": "",
                    "type": "string"
                }
            ],
            "stateMutability": "view",
            "type": "function"
        },
        {
            "inputs": [],
            "name": "Symbol",
            "outputs": [
                {
                    "internalType": "string",
                    "name": "",
                    "type": "string"
                }
            ],
            "stateMutability": "view",
            "type": "function"
        },
        {
            "inputs": [
                {
                    "internalType": "address",
                    "name": "_to",
                    "type": "address"
                },
                {
                    "internalType": "uint256",
                    "name": "_tokenId",
                    "type": "uint256"
                }
            ],
            "name": "approve",
            "outputs": [],
            "stateMutability": "nonpayable",
            "type": "function"
        },
        {
            "inputs": [
                {
                    "internalType": "address",
                    "name": "_owner",
                    "type": "address"
                }
            ],
            "name": "balanceOf",
            "outputs": [
                {
                    "internalType": "uint256",
                    "name": "",
                    "type": "uint256"
                }
            ],
            "stateMutability": "view",
            "type": "function"
        },
        {
            "inputs": [
                {
                    "internalType": "uint256",
                    "name": "_tokenId",
                    "type": "uint256"
                }
            ],
            "name": "getApproved",
            "outputs": [
                {
                    "internalType": "address",
                    "name": "operator",
                    "type": "address"
                }
            ],
            "stateMutability": "view",
            "type": "function"
        },
        {
            "inputs": [
                {
                    "internalType": "address",
                    "name": "_owner",
                    "type": "address"
                },
                {
                    "internalType": "address",
                    "name": "_operator",
                    "type": "address"
                }
            ],
            "name": "isApprovedForAll",
            "outputs": [
                {
                    "internalType": "bool",
                    "name": "",
                    "type": "bool"
                }
            ],
            "stateMutability": "view",
            "type": "function"
        },
        {
            "inputs": [
                {
                    "internalType": "uint256",
                    "name": "_tokenId",
                    "type": "uint256"
                }
            ],
            "name": "ownerOf",
            "outputs": [
                {
                    "internalType": "address",
                    "name": "",
                    "type": "address"
                }
            ],
            "stateMutability": "view",
            "type": "function"
        },
        {
            "inputs": [
                {
                    "internalType": "address",
                    "name": "_from",
                    "type": "address"
                },
                {
                    "internalType": "address",
                    "name": "_to",
                    "type": "address"
                },
                {
                    "internalType": "uint256",
                    "name": "_tokenId",
                    "type": "uint256"
                }
            ],
            "name": "safeTransferFrom",
            "outputs": [],
            "stateMutability": "nonpayable",
            "type": "function"
        },
        {
            "inputs": [
                {
                    "internalType": "address",
                    "name": "_from",
                    "type": "address"
                },
                {
                    "internalType": "address",
                    "name": "_to",
                    "type": "address"
                },
                {
                    "internalType": "uint256",
                    "name": "_tokenId",
                    "type": "uint256"
                },
                {
                    "internalType": "bytes",
                    "name": "_data",
                    "type": "bytes"
                }
            ],
            "name": "safeTransferFrom",
            "outputs": [],
            "stateMutability": "nonpayable",
            "type": "function"
        },
        {
            "inputs": [
                {
                    "internalType": "address",
                    "name": "_operator",
                    "type": "address"
                },
                {
                    "internalType": "bool",
                    "name": "_approved",
                    "type": "bool"
                }
            ],
            "name": "setApprovalForAll",
            "outputs": [],
            "stateMutability": "nonpayable",
            "type": "function"
        },
        {
            "inputs": [
                {
                    "internalType": "bytes4",
                    "name": "interfaceId",
                    "type": "bytes4"
                }
            ],
            "name": "supportsInterface",
            "outputs": [
                {
                    "internalType": "bool",
                    "name": "",
                    "type": "bool"
                }
            ],
            "stateMutability": "view",
            "type": "function"
        },
        {
            "inputs": [
                {
                    "internalType": "uint256",
                    "name": "_tokenId",
                    "type": "uint256"
                }
            ],
            "name": "tokenURI",
            "outputs": [
                {
                    "internalType": "string",
                    "name": "",
                    "type": "string"
                }
            ],
            "stateMutability": "view",
            "type": "function"
        },
        {
            "inputs": [
                {
                    "internalType": "address",
                    "name": "_from",
                    "type": "address"
                },
                {
                    "internalType": "address",
                    "name": "_to",
                    "type": "address"
                },
                {
                    "internalType": "uint256",
                    "name": "_tokenId",
                    "type": "uint256"
                }
            ],
            "name": "transferFrom",
            "outputs": [],
            "stateMutability": "nonpayable",
            "type": "function"
        }
    ],
    "bytecode": "60806040523480156200001157600080fd5b50604051620013cb380380620013cb833981016040819052620000349162000127565b600062000042838262000220565b50600162000051828262000220565b505050620002ec565b634e487b7160e01b600052604160045260246000fd5b600082601f8301126200008257600080fd5b81516001600160401b03808211156200009f576200009f6200005a565b604051601f8301601f19908116603f01168101908282118183101715620000ca57620000ca6200005a565b81604052838152602092508683858801011115620000e757600080fd5b600091505b838210156200010b5785820183015181830184015290820190620000ec565b838211156200011d5760008385830101525b9695505050505050565b600080604083850312156200013b57600080fd5b82516001600160401b03808211156200015357600080fd5b620001618683870162000070565b935060208501519150808211156200017857600080fd5b50620001878582860162000070565b9150509250929050565b600181811c90821680620001a657607f821691505b602082108103620001c757634e487b7160e01b600052602260045260246000fd5b50919050565b601f8211156200021b57600081815260208120601f850160051c81016020861015620001f65750805b601f850160051c820191505b81811015620002175782815560010162000202565b5050505b505050565b81516001600160401b038111156200023c576200023c6200005a565b62000254816200024d845462000191565b84620001cd565b602080601f8311600181146200028c5760008415620002735750858301515b600019600386901b1c1916600185901b17855562000217565b600085815260208120601f198616915b82811015620002bd578886015182559484019460019091019084016200029c565b5085821015620002dc5787850151600019600388901b60f8161c191681555b5050505050600190811b01905550565b6110cf80620002fc6000396000f3fe608060405234801561001057600080fd5b50600436106100cf5760003560e01c80636352211e1161008c578063a22cb46511610066578063a22cb465146101da578063b88d4fde146101ed578063c87b56dd14610200578063e985e9c51461021357600080fd5b80636352211e1461019e57806370a08231146101b15780638052474d146101d257600080fd5b806301ffc9a7146100d4578063081812fc1461010d578063095ea7b31461014e57806323b872dd146101635780633045aaf31461017657806342842e0e1461018b575b600080fd5b6100f86100e2366004610be5565b6001600160e01b0319166301ffc9a760e01b1490565b60405190151581526020015b60405180910390f35b61013661011b366004610c02565b6000908152600460205260409020546001600160a01b031690565b6040516001600160a01b039091168152602001610104565b61016161015c366004610c37565b610226565b005b610161610171366004610c61565b610340565b61017e610371565b6040516101049190610cf5565b610161610199366004610c61565b610403565b6101366101ac366004610c02565b61041e565b6101c46101bf366004610d08565b610489565b604051908152602001610104565b61017e6104fd565b6101616101e8366004610d23565b61050c565b6101616101fb366004610d75565b61051b565b61017e61020e366004610c02565b610553565b6100f8610221366004610e51565b610632565b60006102318261041e565b9050806001600160a01b0316836001600160a01b0316036102a35760405162461bcd60e51b815260206004820152602160248201527f4552433732313a20417070726f76616c20746f2063757272656e74206f776e656044820152603960f91b60648201526084015b60405180910390fd5b336001600160a01b03821614806102bf57506102bf8133610632565b6103315760405162461bcd60e51b815260206004820152603e60248201527f4552433732313a20617070726f76652063616c6c6572206973206e6f7420746f60448201527f6b656e206f776e6572206e6f7220617070726f76656420666f7220616c6c0000606482015260840161029a565b61033b8383610660565b505050565b61034a33826106ce565b6103665760405162461bcd60e51b815260040161029a90610e84565b61033b83838361072d565b60606001805461038090610ed2565b80601f01602080910402602001604051908101604052809291908181526020018280546103ac90610ed2565b80156103f95780601f106103ce576101008083540402835291602001916103f9565b820191906000526020600020905b8154815290600101906020018083116103dc57829003601f168201915b5050505050905090565b61033b8383836040518060200160405280600081525061051b565b6000818152600260205260408120546001600160a01b0316806104835760405162461bcd60e51b815260206004820152601860248201527f4552433732313a20496e76616c696420746f6b656e2049440000000000000000604482015260640161029a565b92915050565b60006001600160a01b0382166104e15760405162461bcd60e51b815260206004820152601960248201527f4552433732313a204e6f7420612076616c6964206f776e657200000000000000604482015260640161029a565b506001600160a01b031660009081526003602052604090205490565b60606000805461038090610ed2565b6105173383836108c9565b5050565b61052533836106ce565b6105415760405162461bcd60e51b815260040161029a90610e84565b61054d84848484610997565b50505050565b6000818152600260205260409020546060906001600160a01b03166105c95760405162461bcd60e51b815260206004820152602660248201527f4552433732313a2055524920717565727920666f7220616e20696e76616c6964604482015265103a37b5b2b760d11b606482015260840161029a565b60006105e060408051602081019091526000815290565b90506000815111610600576040518060200160405280600081525061062b565b8061060a846109ca565b60405160200161061b929190610f0c565b6040516020818303038152906040525b9392505050565b6001600160a01b03918216600090815260056020908152604080832093909416825291909152205460ff1690565b600081815260046020526040902080546001600160a01b0319166001600160a01b03841690811790915581906106958261041e565b6001600160a01b03167f8c5be1e5ebec7d5bd14f71427d1e84f3dd0314c0f7b2291e5b200ac8c7c3b92560405160405180910390a45050565b6000806106da8361041e565b9050806001600160a01b0316846001600160a01b0316148061070157506107018185610632565b8061072557506000838152600460205260409020546001600160a01b038581169116145b949350505050565b826001600160a01b03166107408261041e565b6001600160a01b0316146107a45760405162461bcd60e51b815260206004820152602560248201527f4552433732313a207472616e736665722066726f6d20696e636f72726563742060448201526437bbb732b960d91b606482015260840161029a565b6001600160a01b0382166108065760405162461bcd60e51b8152602060048201526024808201527f4552433732313a207472616e7366657220746f20746865207a65726f206164646044820152637265737360e01b606482015260840161029a565b610811600082610660565b6001600160a01b038316600090815260036020526040812080546001929061083a908490610f51565b90915550506001600160a01b0382166000908152600360205260408120805460019290610868908490610f68565b909155505060008181526002602052604080822080546001600160a01b0319166001600160a01b0386811691821790925591518493918716917fddf252ad1be2c89b69c2b068fc378daa952ba7f163c4a11628f55a4df523b3ef91a4505050565b816001600160a01b0316836001600160a01b03160361092a5760405162461bcd60e51b815260206004820152601960248201527f4552433732313a20617070726f766520746f2063616c6c657200000000000000604482015260640161029a565b6001600160a01b03838116600081815260056020908152604080832094871680845294825291829020805460ff191686151590811790915591519182527f17307eab39ab6107e8899845ad3d59bd9653f200f220920489ca2b5937696c31910160405180910390a3505050565b6109a284848461072d565b6109ae84848484610acb565b61054d5760405162461bcd60e51b815260040161029a90610f80565b6060816000036109f15750506040805180820190915260018152600360fc1b602082015290565b8160005b8115610a1b5780610a0581610fd2565b9150610a149050600a83611001565b91506109f5565b60008167ffffffffffffffff811115610a3657610a36610d5f565b6040519080825280601f01601f191660200182016040528015610a60576020820181803683370190505b5090505b841561072557610a75600183610f51565b9150610a82600a86611015565b610a8d906030610f68565b60f81b818381518110610aa257610aa2611029565b60200101906001600160f81b031916908160001a905350610ac4600a86611001565b9450610a64565b60006001600160a01b0384163b15610bc157604051630a85bd0160e11b81526001600160a01b0385169063150b7a0290610b0f90339089908890889060040161103f565b6020604051808303816000875af1925050508015610b4a575060408051601f3d908101601f19168201909252610b479181019061107c565b60015b610ba7573d808015610b78576040519150601f19603f3d011682016040523d82523d6000602084013e610b7d565b606091505b508051600003610b9f5760405162461bcd60e51b815260040161029a90610f80565b805181602001fd5b6001600160e01b031916630a85bd0160e11b149050610725565b506001949350505050565b6001600160e01b031981168114610be257600080fd5b50565b600060208284031215610bf757600080fd5b813561062b81610bcc565b600060208284031215610c1457600080fd5b5035919050565b80356001600160a01b0381168114610c3257600080fd5b919050565b60008060408385031215610c4a57600080fd5b610c5383610c1b565b946020939093013593505050565b600080600060608486031215610c7657600080fd5b610c7f84610c1b565b9250610c8d60208501610c1b565b9150604084013590509250925092565b60005b83811015610cb8578181015183820152602001610ca0565b8381111561054d5750506000910152565b60008151808452610ce1816020860160208601610c9d565b601f01601f19169290920160200192915050565b60208152600061062b6020830184610cc9565b600060208284031215610d1a57600080fd5b61062b82610c1b565b60008060408385031215610d3657600080fd5b610d3f83610c1b565b915060208301358015158114610d5457600080fd5b809150509250929050565b634e487b7160e01b600052604160045260246000fd5b60008060008060808587031215610d8b57600080fd5b610d9485610c1b565b9350610da260208601610c1b565b925060408501359150606085013567ffffffffffffffff80821115610dc657600080fd5b818701915087601f830112610dda57600080fd5b813581811115610dec57610dec610d5f565b604051601f8201601f19908116603f01168101908382118183101715610e1457610e14610d5f565b816040528281528a6020848701011115610e2d57600080fd5b82602086016020830137600060208483010152809550505050505092959194509250565b60008060408385031215610e6457600080fd5b610e6d83610c1b565b9150610e7b60208401610c1b565b90509250929050565b6020808252602e908201527f4552433732313a2063616c6c6572206973206e6f7420746f6b656e206f776e6560408201526d1c881b9bdc88185c1c1c9bdd995960921b606082015260800190565b600181811c90821680610ee657607f821691505b602082108103610f0657634e487b7160e01b600052602260045260246000fd5b50919050565b60008351610f1e818460208801610c9d565b835190830190610f32818360208801610c9d565b01949350505050565b634e487b7160e01b600052601160045260246000fd5b600082821015610f6357610f63610f3b565b500390565b60008219821115610f7b57610f7b610f3b565b500190565b60208082526032908201527f4552433732313a207472616e7366657220746f206e6f6e20455243373231526560408201527131b2b4bb32b91034b6b83632b6b2b73a32b960711b606082015260800190565b600060018201610fe457610fe4610f3b565b5060010190565b634e487b7160e01b600052601260045260246000fd5b60008261101057611010610feb565b500490565b60008261102457611024610feb565b500690565b634e487b7160e01b600052603260045260246000fd5b6001600160a01b038581168252841660208201526040810183905260806060820181905260009061107290830184610cc9565b9695505050505050565b60006020828403121561108e57600080fd5b815161062b81610bcc56fea2646970667358221220946e72ff37689e71c3d3e699c9e2be3af25d1ce2ba3b02dfda13c13735abc18464736f6c634300080f0033",
    "sourcePath": "c:/Users/Asus/Documents/Web3/opensea/src/contracts/ERC721.sol",
    "compiler": {
        "name": "solc",
        "version": "0.8.15+commit.e14f2714"
    },
    "functionHashes": {
        "Name()": "8052474d",
        "Symbol()": "3045aaf3",
        "approve(address,uint256)": "095ea7b3",
        "balanceOf(address)": "70a08231",
        "getApproved(uint256)": "081812fc",
        "isApprovedForAll(address,address)": "e985e9c5",
        "ownerOf(uint256)": "6352211e",
        "safeTransferFrom(address,address,uint256)": "42842e0e",
        "safeTransferFrom(address,address,uint256,bytes)": "b88d4fde",
        "setApprovalForAll(address,bool)": "a22cb465",
        "supportsInterface(bytes4)": "01ffc9a7",
        "tokenURI(uint256)": "c87b56dd",
        "transferFrom(address,address,uint256)": "23b872dd"
    },
    "gasEstimates": {
        "creation": {
            "codeDepositCost": "860600",
            "executionCost": "infinite",
            "totalCost": "infinite"
        },
        "external": {
            "Name()": "infinite",
            "Symbol()": "infinite",
            "approve(address,uint256)": "infinite",
            "balanceOf(address)": "2634",
            "getApproved(uint256)": "2500",
            "isApprovedForAll(address,address)": "infinite",
            "ownerOf(uint256)": "2555",
            "safeTransferFrom(address,address,uint256)": "infinite",
            "safeTransferFrom(address,address,uint256,bytes)": "infinite",
            "setApprovalForAll(address,bool)": "26705",
            "supportsInterface(bytes4)": "376",
            "tokenURI(uint256)": "infinite",
            "transferFrom(address,address,uint256)": "infinite"
        },
        "internal": {
            "_approve(address,uint256)": "infinite",
            "_baseURI()": "infinite",
            "_burn(uint256)": "infinite",
            "_checkOnERC721Received(address,address,uint256,bytes memory)": "infinite",
            "_exists(uint256)": "infinite",
            "_isApprovedOrOwner(address,uint256)": "infinite",
            "_mint(address,uint256)": "infinite",
            "_safeTransfer(address,address,uint256,bytes memory)": "infinite",
            "_setApprovalForAll(address,address,bool)": "infinite",
            "_transfer(address,address,uint256)": "infinite"
        }
    }
}