{
  "contractName": "DutchAuction",
  "abi": [
    {
      "inputs": [
        {
          "internalType": "uint256",
          "name": "_startingPrice",
          "type": "uint256"
        },
        {
          "internalType": "uint256",
          "name": "_discountRate",
          "type": "uint256"
        },
        {
          "internalType": "address",
          "name": "_nftCollection",
          "type": "address"
        },
        {
          "internalType": "uint256",
          "name": "_tokenId",
          "type": "uint256"
        },
        {
          "internalType": "address",
          "name": "_seller",
          "type": "address"
        }
      ],
      "stateMutability": "nonpayable",
      "type": "constructor"
    },
    {
      "inputs": [],
      "name": "discountRate",
      "outputs": [
        {
          "internalType": "uint256",
          "name": "",
          "type": "uint256"
        }
      ],
      "stateMutability": "view",
      "type": "function"
    },
    {
      "inputs": [],
      "name": "expiresAt",
      "outputs": [
        {
          "internalType": "uint256",
          "name": "",
          "type": "uint256"
        }
      ],
      "stateMutability": "view",
      "type": "function"
    },
    {
      "inputs": [],
      "name": "nftCollection",
      "outputs": [
        {
          "internalType": "contract NFTcollection",
          "name": "",
          "type": "address"
        }
      ],
      "stateMutability": "view",
      "type": "function"
    },
    {
      "inputs": [],
      "name": "seller",
      "outputs": [
        {
          "internalType": "address payable",
          "name": "",
          "type": "address"
        }
      ],
      "stateMutability": "view",
      "type": "function"
    },
    {
      "inputs": [],
      "name": "startAt",
      "outputs": [
        {
          "internalType": "uint256",
          "name": "",
          "type": "uint256"
        }
      ],
      "stateMutability": "view",
      "type": "function"
    },
    {
      "inputs": [],
      "name": "startingPrice",
      "outputs": [
        {
          "internalType": "uint256",
          "name": "",
          "type": "uint256"
        }
      ],
      "stateMutability": "view",
      "type": "function"
    },
    {
      "inputs": [],
      "name": "tokenId",
      "outputs": [
        {
          "internalType": "uint256",
          "name": "",
          "type": "uint256"
        }
      ],
      "stateMutability": "view",
      "type": "function"
    },
    {
      "inputs": [],
      "name": "getPrice",
      "outputs": [
        {
          "internalType": "uint256",
          "name": "",
          "type": "uint256"
        }
      ],
      "stateMutability": "view",
      "type": "function"
    },
    {
      "inputs": [],
      "name": "buy",
      "outputs": [],
      "stateMutability": "payable",
      "type": "function"
    }
  ],
  "bytecode": "0x6101606040523480156200001257600080fd5b5060405162000fa038038062000fa08339818101604052810190620000389190620001dd565b60038462000047919062000294565b8510156200008c576040517f08c379a0000000000000000000000000000000000000000000000000000000008152600401620000839062000356565b60405180910390fd5b8073ffffffffffffffffffffffffffffffffffffffff1660c08173ffffffffffffffffffffffffffffffffffffffff1681525050426101008181525050600342620000d8919062000378565b61012081815250508273ffffffffffffffffffffffffffffffffffffffff1660808173ffffffffffffffffffffffffffffffffffffffff16815250508160a081815250508460e081815250508361014081815250505050505050620003d5565b600080fd5b6000819050919050565b62000152816200013d565b81146200015e57600080fd5b50565b600081519050620001728162000147565b92915050565b600073ffffffffffffffffffffffffffffffffffffffff82169050919050565b6000620001a58262000178565b9050919050565b620001b78162000198565b8114620001c357600080fd5b50565b600081519050620001d781620001ac565b92915050565b600080600080600060a08688031215620001fc57620001fb62000138565b5b60006200020c8882890162000161565b95505060206200021f8882890162000161565b94505060406200023288828901620001c6565b9350506060620002458882890162000161565b92505060806200025888828901620001c6565b9150509295509295909350565b7f4e487b7100000000000000000000000000000000000000000000000000000000600052601160045260246000fd5b6000620002a1826200013d565b9150620002ae836200013d565b9250817fffffffffffffffffffffffffffffffffffffffffffffffffffffffffffffffff0483118215151615620002ea57620002e962000265565b5b828202905092915050565b600082825260208201905092915050565b7f5374617274696e67207072696365203c206d696e000000000000000000000000600082015250565b60006200033e601483620002f5565b91506200034b8262000306565b602082019050919050565b6000602082019050818103600083015262000371816200032f565b9050919050565b600062000385826200013d565b915062000392836200013d565b9250827fffffffffffffffffffffffffffffffffffffffffffffffffffffffffffffffff03821115620003ca57620003c962000265565b5b828201905092915050565b60805160a05160c05160e051610100516101205161014051610b316200046f600039600081816102b3015261066101526000818161025b015261031301526000818161028201526106190152600081816102e1015261063d0152600081816101ef015281816103ff01526105e00152600081816102130152610421015260008181610237015281816103c301526104950152610b316000f3fe6080604052600436106100865760003560e01c806398d5fdca1161005957806398d5fdca14610137578063a6f2ae3a14610162578063c74465651461016c578063d6fbf20214610197578063e6c0e6d5146101c257610086565b806308551a531461008b57806317d70f7c146100b65780636588103b146100e15780638622a6891461010c575b600080fd5b34801561009757600080fd5b506100a06101ed565b6040516100ad91906106c4565b60405180910390f35b3480156100c257600080fd5b506100cb610211565b6040516100d891906106f8565b60405180910390f35b3480156100ed57600080fd5b506100f6610235565b6040516101039190610772565b60405180910390f35b34801561011857600080fd5b50610121610259565b60405161012e91906106f8565b60405180910390f35b34801561014357600080fd5b5061014c61027d565b60405161015991906106f8565b60405180910390f35b61016a610311565b005b34801561017857600080fd5b50610181610617565b60405161018e91906106f8565b60405180910390f35b3480156101a357600080fd5b506101ac61063b565b6040516101b991906106f8565b60405180910390f35b3480156101ce57600080fd5b506101d761065f565b6040516101e491906106f8565b60405180910390f35b7f000000000000000000000000000000000000000000000000000000000000000081565b7f000000000000000000000000000000000000000000000000000000000000000081565b7f000000000000000000000000000000000000000000000000000000000000000081565b7f000000000000000000000000000000000000000000000000000000000000000081565b6000807f0000000000000000000000000000000000000000000000000000000000000000426102ac91906107bc565b90506000817f00000000000000000000000000000000000000000000000000000000000000006102dc91906107f0565b9050807f000000000000000000000000000000000000000000000000000000000000000061030a91906107bc565b9250505090565b7f00000000000000000000000000000000000000000000000000000000000000004210610373576040517f08c379a000000000000000000000000000000000000000000000000000000000815260040161036a906108a7565b60405180910390fd5b600061037d61027d565b90508034146103c1576040517f08c379a00000000000000000000000000000000000000000000000000000000081526004016103b890610913565b60405180910390fd5b7f000000000000000000000000000000000000000000000000000000000000000073ffffffffffffffffffffffffffffffffffffffff166323b872dd7f0000000000000000000000000000000000000000000000000000000000000000337f00000000000000000000000000000000000000000000000000000000000000006040518463ffffffff1660e01b815260040161045e93929190610975565b600060405180830381600087803b15801561047857600080fd5b505af115801561048c573d6000803e3d6000fd5b505050506000807f000000000000000000000000000000000000000000000000000000000000000073ffffffffffffffffffffffffffffffffffffffff1663cef6d368846040518263ffffffff1660e01b81526004016104ec91906106f8565b60408051808303816000875af115801561050a573d6000803e3d6000fd5b505050506040513d601f19601f8201168201806040525081019061052e9190610a09565b9150915060008273ffffffffffffffffffffffffffffffffffffffff168260405161055890610a7a565b60006040518083038185875af1925050503d8060008114610595576040519150601f19603f3d011682016040523d82523d6000602084013e61059a565b606091505b50509050806105de576040517f08c379a00000000000000000000000000000000000000000000000000000000081526004016105d590610adb565b60405180910390fd5b7f000000000000000000000000000000000000000000000000000000000000000073ffffffffffffffffffffffffffffffffffffffff16ff5b7f000000000000000000000000000000000000000000000000000000000000000081565b7f000000000000000000000000000000000000000000000000000000000000000081565b7f000000000000000000000000000000000000000000000000000000000000000081565b600073ffffffffffffffffffffffffffffffffffffffff82169050919050565b60006106ae82610683565b9050919050565b6106be816106a3565b82525050565b60006020820190506106d960008301846106b5565b92915050565b6000819050919050565b6106f2816106df565b82525050565b600060208201905061070d60008301846106e9565b92915050565b6000819050919050565b600061073861073361072e84610683565b610713565b610683565b9050919050565b600061074a8261071d565b9050919050565b600061075c8261073f565b9050919050565b61076c81610751565b82525050565b60006020820190506107876000830184610763565b92915050565b7f4e487b7100000000000000000000000000000000000000000000000000000000600052601160045260246000fd5b60006107c7826106df565b91506107d2836106df565b9250828210156107e5576107e461078d565b5b828203905092915050565b60006107fb826106df565b9150610806836106df565b9250817fffffffffffffffffffffffffffffffffffffffffffffffffffffffffffffffff048311821515161561083f5761083e61078d565b5b828202905092915050565b600082825260208201905092915050565b7f41756374696f6e20457870697265640000000000000000000000000000000000600082015250565b6000610891600f8361084a565b915061089c8261085b565b602082019050919050565b600060208201905081810360008301526108c081610884565b9050919050565b7f56616c7565206e6f7420657175616c20746f2074686520707269636500000000600082015250565b60006108fd601c8361084a565b9150610908826108c7565b602082019050919050565b6000602082019050818103600083015261092c816108f0565b9050919050565b600061093e8261073f565b9050919050565b61094e81610933565b82525050565b600061095f82610683565b9050919050565b61096f81610954565b82525050565b600060608201905061098a6000830186610945565b6109976020830185610966565b6109a460408301846106e9565b949350505050565b600080fd5b6109ba81610954565b81146109c557600080fd5b50565b6000815190506109d7816109b1565b92915050565b6109e6816106df565b81146109f157600080fd5b50565b600081519050610a03816109dd565b92915050565b60008060408385031215610a2057610a1f6109ac565b5b6000610a2e858286016109c8565b9250506020610a3f858286016109f4565b9150509250929050565b600081905092915050565b50565b6000610a64600083610a49565b9150610a6f82610a54565b600082019050919050565b6000610a8582610a57565b9150819050919050565b7f5472616e73616374696f6e206661696c65640000000000000000000000000000600082015250565b6000610ac560128361084a565b9150610ad082610a8f565b602082019050919050565b60006020820190508181036000830152610af481610ab8565b905091905056fea2646970667358221220264a1d428f23cebd5c125822de30b19fed2ec71e8add99af3facdab346f871a564736f6c634300080f0033",
  "immutableReferences": {
    "67": [
      {
        "length": 32,
        "start": 567
      },
      {
        "length": 32,
        "start": 963
      },
      {
        "length": 32,
        "start": 1173
      }
    ],
    "69": [
      {
        "length": 32,
        "start": 531
      },
      {
        "length": 32,
        "start": 1057
      }
    ],
    "71": [
      {
        "length": 32,
        "start": 495
      },
      {
        "length": 32,
        "start": 1023
      },
      {
        "length": 32,
        "start": 1504
      }
    ],
    "73": [
      {
        "length": 32,
        "start": 737
      },
      {
        "length": 32,
        "start": 1597
      }
    ],
    "75": [
      {
        "length": 32,
        "start": 642
      },
      {
        "length": 32,
        "start": 1561
      }
    ],
    "77": [
      {
        "length": 32,
        "start": 603
      },
      {
        "length": 32,
        "start": 787
      }
    ],
    "79": [
      {
        "length": 32,
        "start": 691
      },
      {
        "length": 32,
        "start": 1633
      }
    ]
  },
  "source": "// SPDX-License-Identifier: MIT\r\npragma solidity ^0.8.0;\r\n\r\ninterface NFTcollection {\r\n    function transferFrom(address _from , address _to , uint _nftId) external;\r\n    function royaltyInfo(uint256 _price) external returns(address , uint256);\r\n}\r\n\r\ncontract AuctionFactory{\r\n    mapping(address => address) auction;\r\n\r\n    function createAuction(uint256 _startingPrice , uint256 _discountRate , \r\n                           address _nftCollection , uint256 _tokenId) external{\r\n\r\n                               DutchAuction newAuction = new DutchAuction(_startingPrice , _discountRate , _nftCollection , _tokenId , msg.sender);\r\n                               auction[msg.sender] = address(newAuction);\r\n    }\r\n}\r\n\r\ncontract DutchAuction{\r\n    uint256 private constant DURATION = 3; \r\n\r\n    NFTcollection public immutable nftCollection;\r\n    uint256 public immutable tokenId;\r\n\r\n    address payable public immutable seller;\r\n    uint256 public immutable startingPrice;\r\n    uint256 public immutable startAt;\r\n    uint256 public immutable expiresAt;\r\n    uint256 public immutable discountRate;\r\n    \r\n    constructor(uint256 _startingPrice , uint256 _discountRate , address _nftCollection , uint256 _tokenId , address _seller){\r\n        require(_startingPrice >= _discountRate * DURATION, \"Starting price < min\");\r\n\r\n        seller = payable(_seller);\r\n        startAt = block.timestamp;\r\n        expiresAt = block.timestamp + DURATION;\r\n\r\n        nftCollection = NFTcollection(_nftCollection);\r\n        tokenId = _tokenId;\r\n        startingPrice = _startingPrice;\r\n        discountRate = _discountRate;\r\n\r\n    }\r\n\r\n    function getPrice() public view returns(uint256){\r\n        uint256 timeElapsed = block.timestamp - startAt;\r\n        uint256 discount = discountRate * timeElapsed;\r\n        return startingPrice - discount;\r\n    }\r\n\r\n    function buy() external payable{\r\n        require(block.timestamp < expiresAt , \"Auction Expired\");\r\n        uint256 price = getPrice();\r\n        require(msg.value == price , \"Value not equal to the price\");\r\n        nftCollection.transferFrom(seller , msg.sender , tokenId);\r\n        (address royaltyAddress , uint256 royaltyFee) = nftCollection.royaltyInfo(price);\r\n        (bool tx1, ) = payable(royaltyAddress).call{value: royaltyFee}(\"\");\r\n        require(tx1 , \"Transaction failed\");\r\n        selfdestruct(seller);\r\n    }\r\n}",
  "sourcePath": "C:\\Users\\Asus\\Documents\\Web3\\opensea\\src\\contracts\\Auction.sol",
  "compiler": {
    "name": "solc",
    "version": "0.8.15+commit.e14f2714.Emscripten.clang"
  },
  "schemaVersion": "3.4.4",
  "updatedAt": "2022-06-29T18:11:26.008Z",
  "devdoc": {
    "kind": "dev",
    "methods": {},
    "version": 1
  },
  "userdoc": {
    "kind": "user",
    "methods": {},
    "version": 1
  }
}