{
  "contractName": "ERC721",
  "abi": [
    {
      "inputs": [
        {
          "internalType": "string",
          "name": "_name",
          "type": "string"
        },
        {
          "internalType": "string",
          "name": "_symbol",
          "type": "string"
        }
      ],
      "stateMutability": "nonpayable",
      "type": "constructor"
    },
    {
      "anonymous": false,
      "inputs": [
        {
          "indexed": true,
          "internalType": "address",
          "name": "owner",
          "type": "address"
        },
        {
          "indexed": true,
          "internalType": "address",
          "name": "approved",
          "type": "address"
        },
        {
          "indexed": true,
          "internalType": "uint256",
          "name": "tokenId",
          "type": "uint256"
        }
      ],
      "name": "Approval",
      "type": "event"
    },
    {
      "anonymous": false,
      "inputs": [
        {
          "indexed": true,
          "internalType": "address",
          "name": "owner",
          "type": "address"
        },
        {
          "indexed": true,
          "internalType": "address",
          "name": "operator",
          "type": "address"
        },
        {
          "indexed": false,
          "internalType": "bool",
          "name": "approved",
          "type": "bool"
        }
      ],
      "name": "ApprovalForAll",
      "type": "event"
    },
    {
      "anonymous": false,
      "inputs": [
        {
          "indexed": true,
          "internalType": "address",
          "name": "from",
          "type": "address"
        },
        {
          "indexed": true,
          "internalType": "address",
          "name": "to",
          "type": "address"
        },
        {
          "indexed": true,
          "internalType": "uint256",
          "name": "tokenId",
          "type": "uint256"
        }
      ],
      "name": "Transfer",
      "type": "event"
    },
    {
      "inputs": [
        {
          "internalType": "bytes4",
          "name": "interfaceId",
          "type": "bytes4"
        }
      ],
      "name": "supportsInterface",
      "outputs": [
        {
          "internalType": "bool",
          "name": "",
          "type": "bool"
        }
      ],
      "stateMutability": "view",
      "type": "function"
    },
    {
      "inputs": [],
      "name": "Name",
      "outputs": [
        {
          "internalType": "string",
          "name": "",
          "type": "string"
        }
      ],
      "stateMutability": "view",
      "type": "function"
    },
    {
      "inputs": [],
      "name": "Symbol",
      "outputs": [
        {
          "internalType": "string",
          "name": "",
          "type": "string"
        }
      ],
      "stateMutability": "view",
      "type": "function"
    },
    {
      "inputs": [
        {
          "internalType": "uint256",
          "name": "_tokenId",
          "type": "uint256"
        }
      ],
      "name": "tokenURI",
      "outputs": [
        {
          "internalType": "string",
          "name": "",
          "type": "string"
        }
      ],
      "stateMutability": "view",
      "type": "function"
    },
    {
      "inputs": [
        {
          "internalType": "address",
          "name": "_owner",
          "type": "address"
        }
      ],
      "name": "balanceOf",
      "outputs": [
        {
          "internalType": "uint256",
          "name": "",
          "type": "uint256"
        }
      ],
      "stateMutability": "view",
      "type": "function"
    },
    {
      "inputs": [
        {
          "internalType": "uint256",
          "name": "_tokenId",
          "type": "uint256"
        }
      ],
      "name": "ownerOf",
      "outputs": [
        {
          "internalType": "address",
          "name": "",
          "type": "address"
        }
      ],
      "stateMutability": "view",
      "type": "function"
    },
    {
      "inputs": [
        {
          "internalType": "address",
          "name": "_to",
          "type": "address"
        },
        {
          "internalType": "uint256",
          "name": "_tokenId",
          "type": "uint256"
        }
      ],
      "name": "approve",
      "outputs": [],
      "stateMutability": "nonpayable",
      "type": "function"
    },
    {
      "inputs": [
        {
          "internalType": "uint256",
          "name": "_tokenId",
          "type": "uint256"
        }
      ],
      "name": "getApproved",
      "outputs": [
        {
          "internalType": "address",
          "name": "operator",
          "type": "address"
        }
      ],
      "stateMutability": "view",
      "type": "function"
    },
    {
      "inputs": [
        {
          "internalType": "address",
          "name": "_owner",
          "type": "address"
        },
        {
          "internalType": "address",
          "name": "_operator",
          "type": "address"
        }
      ],
      "name": "isApprovedForAll",
      "outputs": [
        {
          "internalType": "bool",
          "name": "",
          "type": "bool"
        }
      ],
      "stateMutability": "view",
      "type": "function"
    },
    {
      "inputs": [
        {
          "internalType": "address",
          "name": "_operator",
          "type": "address"
        },
        {
          "internalType": "bool",
          "name": "_approved",
          "type": "bool"
        }
      ],
      "name": "setApprovalForAll",
      "outputs": [],
      "stateMutability": "nonpayable",
      "type": "function"
    },
    {
      "inputs": [
        {
          "internalType": "address",
          "name": "_from",
          "type": "address"
        },
        {
          "internalType": "address",
          "name": "_to",
          "type": "address"
        },
        {
          "internalType": "uint256",
          "name": "_tokenId",
          "type": "uint256"
        }
      ],
      "name": "transferFrom",
      "outputs": [],
      "stateMutability": "nonpayable",
      "type": "function"
    },
    {
      "inputs": [
        {
          "internalType": "address",
          "name": "_from",
          "type": "address"
        },
        {
          "internalType": "address",
          "name": "_to",
          "type": "address"
        },
        {
          "internalType": "uint256",
          "name": "_tokenId",
          "type": "uint256"
        }
      ],
      "name": "safeTransferFrom",
      "outputs": [],
      "stateMutability": "nonpayable",
      "type": "function"
    },
    {
      "inputs": [
        {
          "internalType": "address",
          "name": "_from",
          "type": "address"
        },
        {
          "internalType": "address",
          "name": "_to",
          "type": "address"
        },
        {
          "internalType": "uint256",
          "name": "_tokenId",
          "type": "uint256"
        },
        {
          "internalType": "bytes",
          "name": "_data",
          "type": "bytes"
        }
      ],
      "name": "safeTransferFrom",
      "outputs": [],
      "stateMutability": "nonpayable",
      "type": "function"
    }
  ],
  "bytecode": "0x60806040523480156200001157600080fd5b506040516200266838038062002668833981810160405281019062000037919062000200565b8160009081620000489190620004d0565b5080600190816200005a9190620004d0565b505050620005b7565b6000604051905090565b600080fd5b600080fd5b600080fd5b600080fd5b6000601f19601f8301169050919050565b7f4e487b7100000000000000000000000000000000000000000000000000000000600052604160045260246000fd5b620000cc8262000081565b810181811067ffffffffffffffff82111715620000ee57620000ed62000092565b5b80604052505050565b60006200010362000063565b9050620001118282620000c1565b919050565b600067ffffffffffffffff82111562000134576200013362000092565b5b6200013f8262000081565b9050602081019050919050565b60005b838110156200016c5780820151818401526020810190506200014f565b838111156200017c576000848401525b50505050565b600062000199620001938462000116565b620000f7565b905082815260208101848484011115620001b857620001b76200007c565b5b620001c58482856200014c565b509392505050565b600082601f830112620001e557620001e462000077565b5b8151620001f784826020860162000182565b91505092915050565b600080604083850312156200021a57620002196200006d565b5b600083015167ffffffffffffffff8111156200023b576200023a62000072565b5b6200024985828601620001cd565b925050602083015167ffffffffffffffff8111156200026d576200026c62000072565b5b6200027b85828601620001cd565b9150509250929050565b600081519050919050565b7f4e487b7100000000000000000000000000000000000000000000000000000000600052602260045260246000fd5b60006002820490506001821680620002d857607f821691505b602082108103620002ee57620002ed62000290565b5b50919050565b60008190508160005260206000209050919050565b60006020601f8301049050919050565b600082821b905092915050565b600060088302620003587fffffffffffffffffffffffffffffffffffffffffffffffffffffffffffffffff8262000319565b62000364868362000319565b95508019841693508086168417925050509392505050565b6000819050919050565b6000819050919050565b6000620003b1620003ab620003a5846200037c565b62000386565b6200037c565b9050919050565b6000819050919050565b620003cd8362000390565b620003e5620003dc82620003b8565b84845462000326565b825550505050565b600090565b620003fc620003ed565b62000409818484620003c2565b505050565b5b81811015620004315762000425600082620003f2565b6001810190506200040f565b5050565b601f82111562000480576200044a81620002f4565b620004558462000309565b8101602085101562000465578190505b6200047d620004748562000309565b8301826200040e565b50505b505050565b600082821c905092915050565b6000620004a56000198460080262000485565b1980831691505092915050565b6000620004c0838362000492565b9150826002028217905092915050565b620004db8262000285565b67ffffffffffffffff811115620004f757620004f662000092565b5b620005038254620002bf565b6200051082828562000435565b600060209050601f83116001811462000548576000841562000533578287015190505b6200053f8582620004b2565b865550620005af565b601f1984166200055886620002f4565b60005b8281101562000582578489015182556001820191506020850194506020810190506200055b565b86831015620005a257848901516200059e601f89168262000492565b8355505b6001600288020188555050505b505050505050565b6120a180620005c76000396000f3fe608060405234801561001057600080fd5b50600436106100cf5760003560e01c80636352211e1161008c578063a22cb46511610066578063a22cb46514610224578063b88d4fde14610240578063c87b56dd1461025c578063e985e9c51461028c576100cf565b80636352211e146101a657806370a08231146101d65780638052474d14610206576100cf565b806301ffc9a7146100d4578063081812fc14610104578063095ea7b31461013457806323b872dd146101505780633045aaf31461016c57806342842e0e1461018a575b600080fd5b6100ee60048036038101906100e9919061126e565b6102bc565b6040516100fb91906112b6565b60405180910390f35b61011e60048036038101906101199190611307565b610326565b60405161012b9190611375565b60405180910390f35b61014e600480360381019061014991906113bc565b610363565b005b61016a600480360381019061016591906113fc565b61046c565b005b6101746104c5565b60405161018191906114e8565b60405180910390f35b6101a4600480360381019061019f91906113fc565b610557565b005b6101c060048036038101906101bb9190611307565b610577565b6040516101cd9190611375565b60405180910390f35b6101f060048036038101906101eb919061150a565b610628565b6040516101fd9190611546565b60405180910390f35b61020e6106df565b60405161021b91906114e8565b60405180910390f35b61023e6004803603810190610239919061158d565b610771565b005b61025a60048036038101906102559190611702565b610780565b005b61027660048036038101906102719190611307565b6107db565b60405161028391906114e8565b60405180910390f35b6102a660048036038101906102a19190611785565b610882565b6040516102b391906112b6565b60405180910390f35b60007f01ffc9a7000000000000000000000000000000000000000000000000000000007bffffffffffffffffffffffffffffffffffffffffffffffffffffffff1916827bffffffffffffffffffffffffffffffffffffffffffffffffffffffff1916149050919050565b60006004600083815260200190815260200160002060009054906101000a900473ffffffffffffffffffffffffffffffffffffffff169050919050565b600061036e82610577565b90508073ffffffffffffffffffffffffffffffffffffffff168373ffffffffffffffffffffffffffffffffffffffff16036103de576040517f08c379a00000000000000000000000000000000000000000000000000000000081526004016103d590611837565b60405180910390fd5b8073ffffffffffffffffffffffffffffffffffffffff163373ffffffffffffffffffffffffffffffffffffffff16148061041e575061041d8133610882565b5b61045d576040517f08c379a0000000000000000000000000000000000000000000000000000000008152600401610454906118c9565b60405180910390fd5b6104678383610916565b505050565b61047633826109cf565b6104b5576040517f08c379a00000000000000000000000000000000000000000000000000000000081526004016104ac9061195b565b60405180910390fd5b6104c0838383610a64565b505050565b6060600180546104d4906119aa565b80601f0160208091040260200160405190810160405280929190818152602001828054610500906119aa565b801561054d5780601f106105225761010080835404028352916020019161054d565b820191906000526020600020905b81548152906001019060200180831161053057829003601f168201915b5050505050905090565b61057283838360405180602001604052806000815250610780565b505050565b6000806002600084815260200190815260200160002060009054906101000a900473ffffffffffffffffffffffffffffffffffffffff169050600073ffffffffffffffffffffffffffffffffffffffff168173ffffffffffffffffffffffffffffffffffffffff160361061f576040517f08c379a000000000000000000000000000000000000000000000000000000000815260040161061690611a27565b60405180910390fd5b80915050919050565b60008073ffffffffffffffffffffffffffffffffffffffff168273ffffffffffffffffffffffffffffffffffffffff1603610698576040517f08c379a000000000000000000000000000000000000000000000000000000000815260040161068f90611a93565b60405180910390fd5b600360008373ffffffffffffffffffffffffffffffffffffffff1673ffffffffffffffffffffffffffffffffffffffff168152602001908152602001600020549050919050565b6060600080546106ee906119aa565b80601f016020809104026020016040519081016040528092919081815260200182805461071a906119aa565b80156107675780601f1061073c57610100808354040283529160200191610767565b820191906000526020600020905b81548152906001019060200180831161074a57829003601f168201915b5050505050905090565b61077c338383610cb4565b5050565b61078a33836109cf565b6107c9576040517f08c379a00000000000000000000000000000000000000000000000000000000081526004016107c09061195b565b60405180910390fd5b6107d584848484610e20565b50505050565b60606107e682610e7c565b610825576040517f08c379a000000000000000000000000000000000000000000000000000000000815260040161081c90611b25565b60405180910390fd5b600061082f610ee8565b9050600081511161084f576040518060200160405280600081525061087a565b8061085984610eff565b60405160200161086a929190611b81565b6040516020818303038152906040525b915050919050565b6000600560008473ffffffffffffffffffffffffffffffffffffffff1673ffffffffffffffffffffffffffffffffffffffff16815260200190815260200160002060008373ffffffffffffffffffffffffffffffffffffffff1673ffffffffffffffffffffffffffffffffffffffff16815260200190815260200160002060009054906101000a900460ff16905092915050565b816004600083815260200190815260200160002060006101000a81548173ffffffffffffffffffffffffffffffffffffffff021916908373ffffffffffffffffffffffffffffffffffffffff160217905550808273ffffffffffffffffffffffffffffffffffffffff1661098983610577565b73ffffffffffffffffffffffffffffffffffffffff167f8c5be1e5ebec7d5bd14f71427d1e84f3dd0314c0f7b2291e5b200ac8c7c3b92560405160405180910390a45050565b6000806109db83610577565b90508073ffffffffffffffffffffffffffffffffffffffff168473ffffffffffffffffffffffffffffffffffffffff161480610a1d5750610a1c8185610882565b5b80610a5b57508373ffffffffffffffffffffffffffffffffffffffff16610a4384610326565b73ffffffffffffffffffffffffffffffffffffffff16145b91505092915050565b8273ffffffffffffffffffffffffffffffffffffffff16610a8482610577565b73ffffffffffffffffffffffffffffffffffffffff1614610ada576040517f08c379a0000000000000000000000000000000000000000000000000000000008152600401610ad190611c17565b60405180910390fd5b600073ffffffffffffffffffffffffffffffffffffffff168273ffffffffffffffffffffffffffffffffffffffff1603610b49576040517f08c379a0000000000000000000000000000000000000000000000000000000008152600401610b4090611ca9565b60405180910390fd5b610b54600082610916565b6001600360008573ffffffffffffffffffffffffffffffffffffffff1673ffffffffffffffffffffffffffffffffffffffff1681526020019081526020016000206000828254610ba49190611cf8565b925050819055506001600360008473ffffffffffffffffffffffffffffffffffffffff1673ffffffffffffffffffffffffffffffffffffffff1681526020019081526020016000206000828254610bfb9190611d2c565b92505081905550816002600083815260200190815260200160002060006101000a81548173ffffffffffffffffffffffffffffffffffffffff021916908373ffffffffffffffffffffffffffffffffffffffff160217905550808273ffffffffffffffffffffffffffffffffffffffff168473ffffffffffffffffffffffffffffffffffffffff167fddf252ad1be2c89b69c2b068fc378daa952ba7f163c4a11628f55a4df523b3ef60405160405180910390a4505050565b8173ffffffffffffffffffffffffffffffffffffffff168373ffffffffffffffffffffffffffffffffffffffff1603610d22576040517f08c379a0000000000000000000000000000000000000000000000000000000008152600401610d1990611dce565b60405180910390fd5b80600560008573ffffffffffffffffffffffffffffffffffffffff1673ffffffffffffffffffffffffffffffffffffffff16815260200190815260200160002060008473ffffffffffffffffffffffffffffffffffffffff1673ffffffffffffffffffffffffffffffffffffffff16815260200190815260200160002060006101000a81548160ff0219169083151502179055508173ffffffffffffffffffffffffffffffffffffffff168373ffffffffffffffffffffffffffffffffffffffff167f17307eab39ab6107e8899845ad3d59bd9653f200f220920489ca2b5937696c3183604051610e1391906112b6565b60405180910390a3505050565b610e2b848484610a64565b610e378484848461105f565b610e76576040517f08c379a0000000000000000000000000000000000000000000000000000000008152600401610e6d90611e60565b60405180910390fd5b50505050565b60008073ffffffffffffffffffffffffffffffffffffffff166002600084815260200190815260200160002060009054906101000a900473ffffffffffffffffffffffffffffffffffffffff1673ffffffffffffffffffffffffffffffffffffffff1614159050919050565b606060405180602001604052806000815250905090565b606060008203610f46576040518060400160405280600181526020017f3000000000000000000000000000000000000000000000000000000000000000815250905061105a565b600082905060005b60008214610f78578080610f6190611e80565b915050600a82610f719190611ef7565b9150610f4e565b60008167ffffffffffffffff811115610f9457610f936115d7565b5b6040519080825280601f01601f191660200182016040528015610fc65781602001600182028036833780820191505090505b5090505b6000851461105357600182610fdf9190611cf8565b9150600a85610fee9190611f28565b6030610ffa9190611d2c565b60f81b8183815181106110105761100f611f59565b5b60200101907effffffffffffffffffffffffffffffffffffffffffffffffffffffffffffff1916908160001a905350600a8561104c9190611ef7565b9450610fca565b8093505050505b919050565b60006110808473ffffffffffffffffffffffffffffffffffffffff166111df565b156111d2578373ffffffffffffffffffffffffffffffffffffffff1663150b7a02338786866040518563ffffffff1660e01b81526004016110c49493929190611fdd565b6020604051808303816000875af192505050801561110057506040513d601f19601f820116820180604052508101906110fd919061203e565b60015b611182573d8060008114611130576040519150601f19603f3d011682016040523d82523d6000602084013e611135565b606091505b50600081510361117a576040517f08c379a000000000000000000000000000000000000000000000000000000000815260040161117190611e60565b60405180910390fd5b805181602001fd5b63150b7a0260e01b7bffffffffffffffffffffffffffffffffffffffffffffffffffffffff1916817bffffffffffffffffffffffffffffffffffffffffffffffffffffffff1916149150506111d7565b600190505b949350505050565b6000808273ffffffffffffffffffffffffffffffffffffffff163b119050919050565b6000604051905090565b600080fd5b600080fd5b60007fffffffff0000000000000000000000000000000000000000000000000000000082169050919050565b61124b81611216565b811461125657600080fd5b50565b60008135905061126881611242565b92915050565b6000602082840312156112845761128361120c565b5b600061129284828501611259565b91505092915050565b60008115159050919050565b6112b08161129b565b82525050565b60006020820190506112cb60008301846112a7565b92915050565b6000819050919050565b6112e4816112d1565b81146112ef57600080fd5b50565b600081359050611301816112db565b92915050565b60006020828403121561131d5761131c61120c565b5b600061132b848285016112f2565b91505092915050565b600073ffffffffffffffffffffffffffffffffffffffff82169050919050565b600061135f82611334565b9050919050565b61136f81611354565b82525050565b600060208201905061138a6000830184611366565b92915050565b61139981611354565b81146113a457600080fd5b50565b6000813590506113b681611390565b92915050565b600080604083850312156113d3576113d261120c565b5b60006113e1858286016113a7565b92505060206113f2858286016112f2565b9150509250929050565b6000806000606084860312156114155761141461120c565b5b6000611423868287016113a7565b9350506020611434868287016113a7565b9250506040611445868287016112f2565b9150509250925092565b600081519050919050565b600082825260208201905092915050565b60005b8381101561148957808201518184015260208101905061146e565b83811115611498576000848401525b50505050565b6000601f19601f8301169050919050565b60006114ba8261144f565b6114c4818561145a565b93506114d481856020860161146b565b6114dd8161149e565b840191505092915050565b6000602082019050818103600083015261150281846114af565b905092915050565b6000602082840312156115205761151f61120c565b5b600061152e848285016113a7565b91505092915050565b611540816112d1565b82525050565b600060208201905061155b6000830184611537565b92915050565b61156a8161129b565b811461157557600080fd5b50565b60008135905061158781611561565b92915050565b600080604083850312156115a4576115a361120c565b5b60006115b2858286016113a7565b92505060206115c385828601611578565b9150509250929050565b600080fd5b600080fd5b7f4e487b7100000000000000000000000000000000000000000000000000000000600052604160045260246000fd5b61160f8261149e565b810181811067ffffffffffffffff8211171561162e5761162d6115d7565b5b80604052505050565b6000611641611202565b905061164d8282611606565b919050565b600067ffffffffffffffff82111561166d5761166c6115d7565b5b6116768261149e565b9050602081019050919050565b82818337600083830152505050565b60006116a56116a084611652565b611637565b9050828152602081018484840111156116c1576116c06115d2565b5b6116cc848285611683565b509392505050565b600082601f8301126116e9576116e86115cd565b5b81356116f9848260208601611692565b91505092915050565b6000806000806080858703121561171c5761171b61120c565b5b600061172a878288016113a7565b945050602061173b878288016113a7565b935050604061174c878288016112f2565b925050606085013567ffffffffffffffff81111561176d5761176c611211565b5b611779878288016116d4565b91505092959194509250565b6000806040838503121561179c5761179b61120c565b5b60006117aa858286016113a7565b92505060206117bb858286016113a7565b9150509250929050565b7f4552433732313a20417070726f76616c20746f2063757272656e74206f776e6560008201527f7200000000000000000000000000000000000000000000000000000000000000602082015250565b600061182160218361145a565b915061182c826117c5565b604082019050919050565b6000602082019050818103600083015261185081611814565b9050919050565b7f4552433732313a20617070726f76652063616c6c6572206973206e6f7420746f60008201527f6b656e206f776e6572206e6f7220617070726f76656420666f7220616c6c0000602082015250565b60006118b3603e8361145a565b91506118be82611857565b604082019050919050565b600060208201905081810360008301526118e2816118a6565b9050919050565b7f4552433732313a2063616c6c6572206973206e6f7420746f6b656e206f776e6560008201527f72206e6f7220617070726f766564000000000000000000000000000000000000602082015250565b6000611945602e8361145a565b9150611950826118e9565b604082019050919050565b6000602082019050818103600083015261197481611938565b9050919050565b7f4e487b7100000000000000000000000000000000000000000000000000000000600052602260045260246000fd5b600060028204905060018216806119c257607f821691505b6020821081036119d5576119d461197b565b5b50919050565b7f4552433732313a20496e76616c696420746f6b656e2049440000000000000000600082015250565b6000611a1160188361145a565b9150611a1c826119db565b602082019050919050565b60006020820190508181036000830152611a4081611a04565b9050919050565b7f4552433732313a204e6f7420612076616c6964206f776e657200000000000000600082015250565b6000611a7d60198361145a565b9150611a8882611a47565b602082019050919050565b60006020820190508181036000830152611aac81611a70565b9050919050565b7f4552433732313a2055524920717565727920666f7220616e20696e76616c696460008201527f20746f6b656e0000000000000000000000000000000000000000000000000000602082015250565b6000611b0f60268361145a565b9150611b1a82611ab3565b604082019050919050565b60006020820190508181036000830152611b3e81611b02565b9050919050565b600081905092915050565b6000611b5b8261144f565b611b658185611b45565b9350611b7581856020860161146b565b80840191505092915050565b6000611b8d8285611b50565b9150611b998284611b50565b91508190509392505050565b7f4552433732313a207472616e736665722066726f6d20696e636f72726563742060008201527f6f776e6572000000000000000000000000000000000000000000000000000000602082015250565b6000611c0160258361145a565b9150611c0c82611ba5565b604082019050919050565b60006020820190508181036000830152611c3081611bf4565b9050919050565b7f4552433732313a207472616e7366657220746f20746865207a65726f2061646460008201527f7265737300000000000000000000000000000000000000000000000000000000602082015250565b6000611c9360248361145a565b9150611c9e82611c37565b604082019050919050565b60006020820190508181036000830152611cc281611c86565b9050919050565b7f4e487b7100000000000000000000000000000000000000000000000000000000600052601160045260246000fd5b6000611d03826112d1565b9150611d0e836112d1565b925082821015611d2157611d20611cc9565b5b828203905092915050565b6000611d37826112d1565b9150611d42836112d1565b9250827fffffffffffffffffffffffffffffffffffffffffffffffffffffffffffffffff03821115611d7757611d76611cc9565b5b828201905092915050565b7f4552433732313a20617070726f766520746f2063616c6c657200000000000000600082015250565b6000611db860198361145a565b9150611dc382611d82565b602082019050919050565b60006020820190508181036000830152611de781611dab565b9050919050565b7f4552433732313a207472616e7366657220746f206e6f6e20455243373231526560008201527f63656976657220696d706c656d656e7465720000000000000000000000000000602082015250565b6000611e4a60328361145a565b9150611e5582611dee565b604082019050919050565b60006020820190508181036000830152611e7981611e3d565b9050919050565b6000611e8b826112d1565b91507fffffffffffffffffffffffffffffffffffffffffffffffffffffffffffffffff8203611ebd57611ebc611cc9565b5b600182019050919050565b7f4e487b7100000000000000000000000000000000000000000000000000000000600052601260045260246000fd5b6000611f02826112d1565b9150611f0d836112d1565b925082611f1d57611f1c611ec8565b5b828204905092915050565b6000611f33826112d1565b9150611f3e836112d1565b925082611f4e57611f4d611ec8565b5b828206905092915050565b7f4e487b7100000000000000000000000000000000000000000000000000000000600052603260045260246000fd5b600081519050919050565b600082825260208201905092915050565b6000611faf82611f88565b611fb98185611f93565b9350611fc981856020860161146b565b611fd28161149e565b840191505092915050565b6000608082019050611ff26000830187611366565b611fff6020830186611366565b61200c6040830185611537565b818103606083015261201e8184611fa4565b905095945050505050565b60008151905061203881611242565b92915050565b6000602082840312156120545761205361120c565b5b600061206284828501612029565b9150509291505056fea2646970667358221220ac4a37188bbb4b0f1bcef600bbb40e87e36db8057da294cdf816419a17a555e964736f6c634300080f0033",
  "immutableReferences": {},
  "source": "// SPDX-License-Identifier: MIT\r\n\r\npragma solidity ^0.8.0; //version of solidity\r\nimport \"./libraries/Strings.sol\";\r\nimport \"./interfaces/IERC721.sol\";\r\nimport \"./libraries/Address.sol\";\r\nimport \"./interfaces/IERC721Receiver.sol\";\r\nimport \"./interfaces/IERC721Metadata.sol\";\r\nimport \"./ERC165.sol\";\r\n\r\ncontract ERC721 is ERC165 , IERC721 , IERC721Metadata{\r\n    using Strings for uint256;\r\n    using Address for address;\r\n\r\n    string private name;\r\n    string private symbol;\r\n    \r\n    mapping(uint256 => address) owner;\r\n    mapping(address => uint256) balances;\r\n    mapping(uint256 => address) tokenApprovals;\r\n    mapping(address => mapping(address => bool)) operatorApproval;\r\n\r\n    constructor(string memory _name , string memory _symbol){\r\n        name = _name;\r\n        symbol = _symbol;\r\n    }\r\n\r\n    function Name() public view virtual override returns(string memory){\r\n        return name;\r\n    }\r\n\r\n    function Symbol() public view virtual override returns(string memory){\r\n        return symbol;\r\n    }\r\n\r\n    function tokenURI(uint256 _tokenId) public view virtual override returns(string memory){\r\n        require(_exists(_tokenId) , \"ERC721: URI query for an invalid token\");\r\n        string memory baseURI = _baseURI();\r\n        //abi.encode\r\n        return bytes(baseURI).length > 0 ? string(abi.encodePacked(baseURI, _tokenId.toString())) : \"\";\r\n    }\r\n\r\n    function _exists(uint256 _tokenId) internal view returns(bool){\r\n        return owner[_tokenId] != address(0);\r\n    }\r\n\r\n    function _baseURI() internal pure returns (string memory) {\r\n        return \"\";                         //mention the base URI for the storage of metadata of NFTs\r\n    }\r\n\r\n    function balanceOf(address _owner) public view virtual override returns (uint256){\r\n        require(_owner != address(0) , \"ERC721: Not a valid owner\");\r\n        return balances[_owner];\r\n    }\r\n\r\n    function ownerOf(uint256 _tokenId) public view virtual override returns (address){\r\n        address _owner = owner[_tokenId];\r\n        require(_owner != address(0) , \"ERC721: Invalid token ID\");\r\n        return _owner;\r\n    }\r\n\r\n    function approve(address _to , uint256 _tokenId) public virtual override{\r\n        address _owner = ownerOf(_tokenId);\r\n        require(_to != _owner, \"ERC721: Approval to current owner\");\r\n        require(msg.sender == _owner || isApprovedForAll(_owner , msg.sender),\r\n            \"ERC721: approve caller is not token owner nor approved for all\"\r\n        );\r\n\r\n        _approve(_to , _tokenId);\r\n    }\r\n    function _approve(address _to , uint256 _tokenId) internal{\r\n        tokenApprovals[_tokenId] = _to;\r\n        emit Approval(ownerOf(_tokenId) , _to , _tokenId);\r\n    }\r\n\r\n    function getApproved(uint256 _tokenId) public view virtual override returns (address operator){\r\n        return tokenApprovals[_tokenId];\r\n    }\r\n\r\n    function isApprovedForAll(address _owner , address _operator) public view virtual override returns(bool){\r\n        return operatorApproval[_owner][_operator];\r\n    }\r\n\r\n    function setApprovalForAll(address _operator, bool _approved) public virtual override {\r\n        _setApprovalForAll(msg.sender , _operator , _approved);\r\n    }\r\n    function _setApprovalForAll(address _owner , address _operator , bool _approved) internal virtual {\r\n        require(_owner != _operator, \"ERC721: approve to caller\");\r\n        operatorApproval[_owner][_operator] = _approved;\r\n        emit ApprovalForAll(_owner , _operator , _approved);\r\n    }\r\n\r\n    function transferFrom(address _from , address _to , uint256 _tokenId) public virtual override {\r\n        require(_isApprovedOrOwner(msg.sender , _tokenId), \"ERC721: caller is not token owner nor approved\");\r\n\r\n        _transfer(_from , _to , _tokenId);\r\n    }\r\n\r\n    function _isApprovedOrOwner(address _spender , uint256 _tokenId) internal view virtual returns(bool){\r\n        address _owner = ownerOf(_tokenId);\r\n        return (_spender == _owner || isApprovedForAll(_owner , _spender) || getApproved(_tokenId) == _spender);\r\n    }\r\n\r\n    function _transfer(address _from , address _to , uint256 _tokenId) internal virtual {\r\n        require(ownerOf(_tokenId) == _from, \"ERC721: transfer from incorrect owner\");\r\n        require(_to != address(0), \"ERC721: transfer to the zero address\");\r\n\r\n        _approve(address(0), _tokenId);     //remove the previous approval of _tokenId\r\n\r\n        balances[_from] -= 1;\r\n        balances[_to] += 1;\r\n        owner[_tokenId] = _to;\r\n\r\n        emit Transfer(_from , _to , _tokenId);\r\n    }\r\n\r\n    function safeTransferFrom(address _from , address _to , uint256 _tokenId) public virtual override {\r\n        safeTransferFrom(_from , _to , _tokenId , \"\");\r\n    }\r\n\r\n    function safeTransferFrom(address _from , address _to , uint256 _tokenId , bytes memory _data) public virtual override {\r\n        require(_isApprovedOrOwner(msg.sender , _tokenId), \"ERC721: caller is not token owner nor approved\");\r\n        _safeTransfer(_from , _to , _tokenId , _data);\r\n    }\r\n\r\n    function _safeTransfer(address _from , address _to , uint256 _tokenId , bytes memory _data) internal virtual {\r\n        _transfer(_from , _to , _tokenId);\r\n        require(_checkOnERC721Received(_from , _to , _tokenId , _data), \"ERC721: transfer to non ERC721Receiver implementer\");\r\n    }\r\n\r\n    function _mint(address _to , uint256 _tokenId) internal virtual{\r\n        require(_to != address(0), \"ERC721: mint to the zero address\");\r\n        require(!_exists(_tokenId), \"ERC721: token already minted\");\r\n\r\n        balances[_to] += 1;\r\n        owner[_tokenId] = _to;\r\n\r\n        emit Transfer(address(0) , _to , _tokenId);\r\n    }\r\n\r\n    function _burn(uint256 _tokenId) internal virtual {\r\n        require(_isApprovedOrOwner(msg.sender , _tokenId), \"ERC721: caller is not token owner nor approved\");\r\n        address _owner = ownerOf(_tokenId);\r\n\r\n        _approve(address(0) , _tokenId); //clear approval\r\n\r\n        balances[_owner] -= 1;\r\n        delete owner[_tokenId];\r\n\r\n        emit Transfer(_owner , address(0) , _tokenId);\r\n    }\r\n\r\n    function _checkOnERC721Received(address _from , address _to , uint256 _tokenId , bytes memory _data) private returns (bool){\r\n        if (_to.isContract()) {\r\n            try IERC721Receiver(_to).onERC721Received(msg.sender, _from, _tokenId, _data) returns (bytes4 retval) {\r\n                return retval == IERC721Receiver.onERC721Received.selector;\r\n            } catch (bytes memory reason) {\r\n                if (reason.length == 0) {\r\n                    revert(\"ERC721: transfer to non ERC721Receiver implementer\");\r\n                } else {\r\n                    /// @solidity memory-safe-assembly\r\n                    assembly {\r\n                        revert(add(32, reason), mload(reason))\r\n                    }\r\n                }\r\n            }\r\n        } else {\r\n            return true;\r\n        }\r\n    }\r\n\r\n    \r\n}",
  "sourcePath": "C:\\Users\\Asus\\Documents\\Web3\\opensea\\src\\contracts\\ERC721.sol",
  "compiler": {
    "name": "solc",
    "version": "0.8.15+commit.e14f2714.Emscripten.clang"
  },
  "schemaVersion": "3.4.4",
  "updatedAt": "2022-06-29T18:11:26.112Z",
  "devdoc": {
    "kind": "dev",
    "methods": {},
    "version": 1
  },
  "userdoc": {
    "kind": "user",
    "methods": {},
    "version": 1
  }
}