{
  "contractName": "NFTFactory",
  "abi": [
    {
      "inputs": [
        {
          "internalType": "string",
          "name": "_name",
          "type": "string"
        },
        {
          "internalType": "string",
          "name": "_symbol",
          "type": "string"
        },
        {
          "internalType": "string",
          "name": "_baseURI",
          "type": "string"
        },
        {
          "internalType": "uint256",
          "name": "_count",
          "type": "uint256"
        },
        {
          "internalType": "uint96",
          "name": "_royaltyFeesInBips",
          "type": "uint96"
        },
        {
          "internalType": "address",
          "name": "_royaltyAddress",
          "type": "address"
        }
      ],
      "name": "createCollection",
      "outputs": [],
      "stateMutability": "nonpayable",
      "type": "function"
    },
    {
      "inputs": [],
      "name": "getCollections",
      "outputs": [
        {
          "internalType": "address[]",
          "name": "",
          "type": "address[]"
        }
      ],
      "stateMutability": "view",
      "type": "function",
      "constant": true
    },
    {
      "inputs": [
        {
          "internalType": "address",
          "name": "_artist",
          "type": "address"
        }
      ],
      "name": "getCollection",
      "outputs": [
        {
          "internalType": "address[]",
          "name": "",
          "type": "address[]"
        }
      ],
      "stateMutability": "view",
      "type": "function",
      "constant": true
    }
  ],
  "bytecode": "0x608060405234801561001057600080fd5b506145a1806100206000396000f3fe60806040523480156200001157600080fd5b5060043610620000465760003560e01c806316bf5b26146200004b57806346e63586146200006b578063e40de887146200008d575b600080fd5b620000696004803603810190620000639190620005e2565b620000c3565b005b6200007562000217565b604051620000849190620007a9565b60405180910390f35b620000ab6004803603810190620000a59190620007cd565b620002a7565b604051620000ba9190620007a9565b60405180910390f35b600086863387878787604051620000da9062000375565b620000ec9796959493929190620008c5565b604051809103906000f08015801562000109573d6000803e3d6000fd5b5090506001819080600181540180825580915050600190039060005260206000200160009091909190916101000a81548173ffffffffffffffffffffffffffffffffffffffff021916908373ffffffffffffffffffffffffffffffffffffffff1602179055506000803373ffffffffffffffffffffffffffffffffffffffff1673ffffffffffffffffffffffffffffffffffffffff168152602001908152602001600020819080600181540180825580915050600190039060005260206000200160009091909190916101000a81548173ffffffffffffffffffffffffffffffffffffffff021916908373ffffffffffffffffffffffffffffffffffffffff16021790555050505050505050565b606060018054806020026020016040519081016040528092919081815260200182805480156200029d57602002820191906000526020600020905b8160009054906101000a900473ffffffffffffffffffffffffffffffffffffffff1673ffffffffffffffffffffffffffffffffffffffff168152602001906001019080831162000252575b5050505050905090565b60606000808373ffffffffffffffffffffffffffffffffffffffff1673ffffffffffffffffffffffffffffffffffffffff1681526020019081526020016000208054806020026020016040519081016040528092919081815260200182805480156200036957602002820191906000526020600020905b8160009054906101000a900473ffffffffffffffffffffffffffffffffffffffff1673ffffffffffffffffffffffffffffffffffffffff16815260200190600101908083116200031e575b50505050509050919050565b613c14806200095883390190565b6000604051905090565b600080fd5b600080fd5b600080fd5b600080fd5b6000601f19601f8301169050919050565b7f4e487b7100000000000000000000000000000000000000000000000000000000600052604160045260246000fd5b620003ec82620003a1565b810181811067ffffffffffffffff821117156200040e576200040d620003b2565b5b80604052505050565b60006200042362000383565b9050620004318282620003e1565b919050565b600067ffffffffffffffff821115620004545762000453620003b2565b5b6200045f82620003a1565b9050602081019050919050565b82818337600083830152505050565b6000620004926200048c8462000436565b62000417565b905082815260208101848484011115620004b157620004b06200039c565b5b620004be8482856200046c565b509392505050565b600082601f830112620004de57620004dd62000397565b5b8135620004f08482602086016200047b565b91505092915050565b6000819050919050565b6200050e81620004f9565b81146200051a57600080fd5b50565b6000813590506200052e8162000503565b92915050565b60006bffffffffffffffffffffffff82169050919050565b620005578162000534565b81146200056357600080fd5b50565b60008135905062000577816200054c565b92915050565b600073ffffffffffffffffffffffffffffffffffffffff82169050919050565b6000620005aa826200057d565b9050919050565b620005bc816200059d565b8114620005c857600080fd5b50565b600081359050620005dc81620005b1565b92915050565b60008060008060008060c087890312156200060257620006016200038d565b5b600087013567ffffffffffffffff81111562000623576200062262000392565b5b6200063189828a01620004c6565b965050602087013567ffffffffffffffff81111562000655576200065462000392565b5b6200066389828a01620004c6565b955050604087013567ffffffffffffffff81111562000687576200068662000392565b5b6200069589828a01620004c6565b9450506060620006a889828a016200051d565b9350506080620006bb89828a0162000566565b92505060a0620006ce89828a01620005cb565b9150509295509295509295565b600081519050919050565b600082825260208201905092915050565b6000819050602082019050919050565b62000712816200059d565b82525050565b600062000726838362000707565b60208301905092915050565b6000602082019050919050565b60006200074c82620006db565b620007588185620006e6565b93506200076583620006f7565b8060005b838110156200079c57815162000780888262000718565b97506200078d8362000732565b92505060018101905062000769565b5085935050505092915050565b60006020820190508181036000830152620007c581846200073f565b905092915050565b600060208284031215620007e657620007e56200038d565b5b6000620007f684828501620005cb565b91505092915050565b600081519050919050565b600082825260208201905092915050565b60005b838110156200083b5780820151818401526020810190506200081e565b838111156200084b576000848401525b50505050565b60006200085e82620007ff565b6200086a81856200080a565b93506200087c8185602086016200081b565b6200088781620003a1565b840191505092915050565b6200089d816200059d565b82525050565b620008ae81620004f9565b82525050565b620008bf8162000534565b82525050565b600060e0820190508181036000830152620008e1818a62000851565b90508181036020830152620008f7818962000851565b905062000908604083018862000892565b81810360608301526200091c818762000851565b90506200092d6080830186620008a3565b6200093c60a0830185620008b4565b6200094b60c083018462000892565b9897505050505050505056fe608060405260006008553480156200001657600080fd5b5060405162003c1438038062003c1483398181016040528101906200003c919062000680565b868681600090816200004f9190620009d1565b508060019081620000619190620009d1565b50505084600660006101000a81548173ffffffffffffffffffffffffffffffffffffffff021916908373ffffffffffffffffffffffffffffffffffffffff1602179055508360079081620000b69190620009d1565b5081600960006101000a8154816bffffffffffffffffffffffff02191690836bffffffffffffffffffffffff160217905550806009600c6101000a81548173ffffffffffffffffffffffffffffffffffffffff021916908373ffffffffffffffffffffffffffffffffffffffff1602179055506200013a836200014760201b60201c565b5050505050505062000c86565b60005b81811015620001b95760086000815480929190620001689062000ae7565b9190505550620001a3600660009054906101000a900473ffffffffffffffffffffffffffffffffffffffff16600854620001bd60201b60201c565b8080620001b09062000ae7565b9150506200014a565b5050565b600073ffffffffffffffffffffffffffffffffffffffff168273ffffffffffffffffffffffffffffffffffffffff16036200022f576040517f08c379a0000000000000000000000000000000000000000000000000000000008152600401620002269062000b95565b60405180910390fd5b62000240816200038e60201b60201c565b1562000283576040517f08c379a00000000000000000000000000000000000000000000000000000000081526004016200027a9062000c07565b60405180910390fd5b6001600360008473ffffffffffffffffffffffffffffffffffffffff1673ffffffffffffffffffffffffffffffffffffffff1681526020019081526020016000206000828254620002d5919062000c29565b92505081905550816002600083815260200190815260200160002060006101000a81548173ffffffffffffffffffffffffffffffffffffffff021916908373ffffffffffffffffffffffffffffffffffffffff160217905550808273ffffffffffffffffffffffffffffffffffffffff16600073ffffffffffffffffffffffffffffffffffffffff167fddf252ad1be2c89b69c2b068fc378daa952ba7f163c4a11628f55a4df523b3ef60405160405180910390a45050565b60008073ffffffffffffffffffffffffffffffffffffffff166002600084815260200190815260200160002060009054906101000a900473ffffffffffffffffffffffffffffffffffffffff1673ffffffffffffffffffffffffffffffffffffffff1614159050919050565b6000604051905090565b600080fd5b600080fd5b600080fd5b600080fd5b6000601f19601f8301169050919050565b7f4e487b7100000000000000000000000000000000000000000000000000000000600052604160045260246000fd5b620004638262000418565b810181811067ffffffffffffffff8211171562000485576200048462000429565b5b80604052505050565b60006200049a620003fa565b9050620004a8828262000458565b919050565b600067ffffffffffffffff821115620004cb57620004ca62000429565b5b620004d68262000418565b9050602081019050919050565b60005b8381101562000503578082015181840152602081019050620004e6565b8381111562000513576000848401525b50505050565b6000620005306200052a84620004ad565b6200048e565b9050828152602081018484840111156200054f576200054e62000413565b5b6200055c848285620004e3565b509392505050565b600082601f8301126200057c576200057b6200040e565b5b81516200058e84826020860162000519565b91505092915050565b600073ffffffffffffffffffffffffffffffffffffffff82169050919050565b6000620005c48262000597565b9050919050565b620005d681620005b7565b8114620005e257600080fd5b50565b600081519050620005f681620005cb565b92915050565b6000819050919050565b6200061181620005fc565b81146200061d57600080fd5b50565b600081519050620006318162000606565b92915050565b60006bffffffffffffffffffffffff82169050919050565b6200065a8162000637565b81146200066657600080fd5b50565b6000815190506200067a816200064f565b92915050565b600080600080600080600060e0888a031215620006a257620006a162000404565b5b600088015167ffffffffffffffff811115620006c357620006c262000409565b5b620006d18a828b0162000564565b975050602088015167ffffffffffffffff811115620006f557620006f462000409565b5b620007038a828b0162000564565b9650506040620007168a828b01620005e5565b955050606088015167ffffffffffffffff8111156200073a576200073962000409565b5b620007488a828b0162000564565b94505060806200075b8a828b0162000620565b93505060a06200076e8a828b0162000669565b92505060c0620007818a828b01620005e5565b91505092959891949750929550565b600081519050919050565b7f4e487b7100000000000000000000000000000000000000000000000000000000600052602260045260246000fd5b60006002820490506001821680620007e357607f821691505b602082108103620007f957620007f86200079b565b5b50919050565b60008190508160005260206000209050919050565b60006020601f8301049050919050565b600082821b905092915050565b600060088302620008637fffffffffffffffffffffffffffffffffffffffffffffffffffffffffffffffff8262000824565b6200086f868362000824565b95508019841693508086168417925050509392505050565b6000819050919050565b6000620008b2620008ac620008a684620005fc565b62000887565b620005fc565b9050919050565b6000819050919050565b620008ce8362000891565b620008e6620008dd82620008b9565b84845462000831565b825550505050565b600090565b620008fd620008ee565b6200090a818484620008c3565b505050565b5b81811015620009325762000926600082620008f3565b60018101905062000910565b5050565b601f82111562000981576200094b81620007ff565b620009568462000814565b8101602085101562000966578190505b6200097e620009758562000814565b8301826200090f565b50505b505050565b600082821c905092915050565b6000620009a66000198460080262000986565b1980831691505092915050565b6000620009c1838362000993565b9150826002028217905092915050565b620009dc8262000790565b67ffffffffffffffff811115620009f857620009f762000429565b5b62000a048254620007ca565b62000a1182828562000936565b600060209050601f83116001811462000a49576000841562000a34578287015190505b62000a408582620009b3565b86555062000ab0565b601f19841662000a5986620007ff565b60005b8281101562000a835784890151825560018201915060208501945060208101905062000a5c565b8683101562000aa3578489015162000a9f601f89168262000993565b8355505b6001600288020188555050505b505050505050565b7f4e487b7100000000000000000000000000000000000000000000000000000000600052601160045260246000fd5b600062000af482620005fc565b91507fffffffffffffffffffffffffffffffffffffffffffffffffffffffffffffffff820362000b295762000b2862000ab8565b5b600182019050919050565b600082825260208201905092915050565b7f4552433732313a206d696e7420746f20746865207a65726f2061646472657373600082015250565b600062000b7d60208362000b34565b915062000b8a8262000b45565b602082019050919050565b6000602082019050818103600083015262000bb08162000b6e565b9050919050565b7f4552433732313a20746f6b656e20616c7265616479206d696e74656400000000600082015250565b600062000bef601c8362000b34565b915062000bfc8262000bb7565b602082019050919050565b6000602082019050818103600083015262000c228162000be0565b9050919050565b600062000c3682620005fc565b915062000c4383620005fc565b9250827fffffffffffffffffffffffffffffffffffffffffffffffffffffffffffffffff0382111562000c7b5762000c7a62000ab8565b5b828201905092915050565b612f7e8062000c966000396000f3fe6080604052600436106101815760003560e01c80636c0360eb116100d1578063ab48ad861161008a578063c87b56dd11610064578063c87b56dd14610599578063cef6d368146105d6578063d4ddce8a14610614578063e985e9c51461065157610181565b8063ab48ad8614610508578063ad2f852a14610545578063b88d4fde1461057057610181565b80636c0360eb146103f657806370a082311461042157806373c7400e1461045e57806378190816146104895780638052474d146104b4578063a22cb465146104df57610181565b80633045aaf31161013e57806342842e0e1161011857806342842e0e1461034957806343bc16121461037257806351ed82881461039d5780636352211e146103b957610181565b80633045aaf3146102a45780633c99e2e9146102cf5780633c9c790c1461030c57610181565b806301ffc9a714610186578063081812fc146101c3578063095ea7b3146102005780631361a3b61461022957806317fcfe221461025257806323b872dd1461027b575b600080fd5b34801561019257600080fd5b506101ad60048036038101906101a89190611cd1565b61068e565b6040516101ba9190611d19565b60405180910390f35b3480156101cf57600080fd5b506101ea60048036038101906101e59190611d6a565b6106d0565b6040516101f79190611dd8565b60405180910390f35b34801561020c57600080fd5b5061022760048036038101906102229190611e1f565b61070d565b005b34801561023557600080fd5b50610250600480360381019061024b9190611d6a565b610816565b005b34801561025e57600080fd5b5061027960048036038101906102749190611e5f565b61087b565b005b34801561028757600080fd5b506102a2600480360381019061029d9190611e9f565b610923565b005b3480156102b057600080fd5b506102b961097c565b6040516102c69190611f8b565b60405180910390f35b3480156102db57600080fd5b506102f660048036038101906102f19190611fad565b610a0e565b6040516103039190612085565b60405180910390f35b34801561031857600080fd5b50610333600480360381019061032e9190611d6a565b610afc565b60405161034091906120b0565b60405180910390f35b34801561035557600080fd5b50610370600480360381019061036b9190611e9f565b610b31565b005b34801561037e57600080fd5b50610387610b51565b6040516103949190611dd8565b60405180910390f35b6103b760048036038101906103b29190611d6a565b610b77565b005b3480156103c557600080fd5b506103e060048036038101906103db9190611d6a565b610ddb565b6040516103ed9190611dd8565b60405180910390f35b34801561040257600080fd5b5061040b610e8c565b6040516104189190611f8b565b60405180910390f35b34801561042d57600080fd5b5061044860048036038101906104439190611fad565b610f1a565b60405161045591906120b0565b60405180910390f35b34801561046a57600080fd5b50610473610fd1565b60405161048091906120f2565b60405180910390f35b34801561049557600080fd5b5061049e610fef565b6040516104ab91906120b0565b60405180910390f35b3480156104c057600080fd5b506104c9610ff5565b6040516104d69190611f8b565b60405180910390f35b3480156104eb57600080fd5b5061050660048036038101906105019190612139565b611087565b005b34801561051457600080fd5b5061052f600480360381019061052a9190611d6a565b611096565b60405161053c91906120b0565b60405180910390f35b34801561055157600080fd5b5061055a6110e0565b6040516105679190611dd8565b60405180910390f35b34801561057c57600080fd5b50610597600480360381019061059291906122ae565b611106565b005b3480156105a557600080fd5b506105c060048036038101906105bb9190611d6a565b611161565b6040516105cd9190611f8b565b60405180910390f35b3480156105e257600080fd5b506105fd60048036038101906105f89190611d6a565b611208565b60405161060b929190612331565b60405180910390f35b34801561062057600080fd5b5061063b60048036038101906106369190611d6a565b611240565b60405161064891906120b0565b60405180910390f35b34801561065d57600080fd5b506106786004803603810190610673919061235a565b611258565b6040516106859190611d19565b60405180910390f35b6000632a55205a60e01b827bffffffffffffffffffffffffffffffffffffffffffffffffffffffff191614806106c957506106c8826112ec565b5b9050919050565b60006004600083815260200190815260200160002060009054906101000a900473ffffffffffffffffffffffffffffffffffffffff169050919050565b600061071882610ddb565b90508073ffffffffffffffffffffffffffffffffffffffff168373ffffffffffffffffffffffffffffffffffffffff1603610788576040517f08c379a000000000000000000000000000000000000000000000000000000000815260040161077f9061240c565b60405180910390fd5b8073ffffffffffffffffffffffffffffffffffffffff163373ffffffffffffffffffffffffffffffffffffffff1614806107c857506107c78133611258565b5b610807576040517f08c379a00000000000000000000000000000000000000000000000000000000081526004016107fe9061249e565b60405180910390fd5b6108118383611356565b505050565b610820338261140f565b61085f576040517f08c379a000000000000000000000000000000000000000000000000000000000815260040161085690612530565b60405180910390fd5b6000600a60008381526020019081526020016000208190555050565b610885338361140f565b6108c4576040517f08c379a00000000000000000000000000000000000000000000000000000000081526004016108bb90612530565b60405180910390fd5b60008111610907576040517f08c379a00000000000000000000000000000000000000000000000000000000081526004016108fe9061259c565b60405180910390fd5b80600a6000848152602001908152602001600020819055505050565b61092d338261140f565b61096c576040517f08c379a00000000000000000000000000000000000000000000000000000000081526004016109639061262e565b60405180910390fd5b6109778383836114a4565b505050565b60606001805461098b9061267d565b80601f01602080910402602001604051908101604052809291908181526020018280546109b79061267d565b8015610a045780601f106109d957610100808354040283529160200191610a04565b820191906000526020600020905b8154815290600101906020018083116109e757829003601f168201915b5050505050905090565b610a16611c42565b610a1e611c42565b60005b600854811015610af2578373ffffffffffffffffffffffffffffffffffffffff1660026000600184610a5391906126dd565b815260200190815260200160002060009054906101000a900473ffffffffffffffffffffffffffffffffffffffff1673ffffffffffffffffffffffffffffffffffffffff1603610ac05760018282600a8110610ab257610ab1612733565b5b602002018181525050610adf565b60008282600a8110610ad557610ad4612733565b5b6020020181815250505b8080610aea90612762565b915050610a21565b5080915050919050565b600080600a6000848152602001908152602001600020549050610b1e81611096565b81610b2991906126dd565b915050919050565b610b4c83838360405180602001604052806000815250611106565b505050565b600660009054906101000a900473ffffffffffffffffffffffffffffffffffffffff1681565b6000610b8282610afc565b905060008111610bc7576040517f08c379a0000000000000000000000000000000000000000000000000000000008152600401610bbe906127f6565b60405180910390fd5b80341015610c0a576040517f08c379a0000000000000000000000000000000000000000000000000000000008152600401610c0190612888565b60405180910390fd5b6000610c1583610ddb565b9050610c228133856114a4565b6000600a6000858152602001908152602001600020819055506000610c4683611096565b905060006009600c9054906101000a900473ffffffffffffffffffffffffffffffffffffffff1673ffffffffffffffffffffffffffffffffffffffff1682604051610c90906128d9565b60006040518083038185875af1925050503d8060008114610ccd576040519150601f19603f3d011682016040523d82523d6000602084013e610cd2565b606091505b5050905080610d16576040517f08c379a0000000000000000000000000000000000000000000000000000000008152600401610d0d9061293a565b60405180910390fd5b60008285610d24919061295a565b905060008473ffffffffffffffffffffffffffffffffffffffff1682604051610d4c906128d9565b60006040518083038185875af1925050503d8060008114610d89576040519150601f19603f3d011682016040523d82523d6000602084013e610d8e565b606091505b5050905080610dd2576040517f08c379a0000000000000000000000000000000000000000000000000000000008152600401610dc99061293a565b60405180910390fd5b50505050505050565b6000806002600084815260200190815260200160002060009054906101000a900473ffffffffffffffffffffffffffffffffffffffff169050600073ffffffffffffffffffffffffffffffffffffffff168173ffffffffffffffffffffffffffffffffffffffff1603610e83576040517f08c379a0000000000000000000000000000000000000000000000000000000008152600401610e7a906129da565b60405180910390fd5b80915050919050565b60078054610e999061267d565b80601f0160208091040260200160405190810160405280929190818152602001828054610ec59061267d565b8015610f125780601f10610ee757610100808354040283529160200191610f12565b820191906000526020600020905b815481529060010190602001808311610ef557829003601f168201915b505050505081565b60008073ffffffffffffffffffffffffffffffffffffffff168273ffffffffffffffffffffffffffffffffffffffff1603610f8a576040517f08c379a0000000000000000000000000000000000000000000000000000000008152600401610f8190612a46565b60405180910390fd5b600360008373ffffffffffffffffffffffffffffffffffffffff1673ffffffffffffffffffffffffffffffffffffffff168152602001908152602001600020549050919050565b600960009054906101000a90046bffffffffffffffffffffffff1681565b60085481565b6060600080546110049061267d565b80601f01602080910402602001604051908101604052809291908181526020018280546110309061267d565b801561107d5780601f106110525761010080835404028352916020019161107d565b820191906000526020600020905b81548152906001019060200180831161106057829003601f168201915b5050505050905090565b6110923383836116f4565b5050565b6000612710600960009054906101000a90046bffffffffffffffffffffffff166bffffffffffffffffffffffff16836110cf9190612a66565b6110d99190612aef565b9050919050565b6009600c9054906101000a900473ffffffffffffffffffffffffffffffffffffffff1681565b611110338361140f565b61114f576040517f08c379a00000000000000000000000000000000000000000000000000000000081526004016111469061262e565b60405180910390fd5b61115b84848484611860565b50505050565b606061116c826118bc565b6111ab576040517f08c379a00000000000000000000000000000000000000000000000000000000081526004016111a290612b92565b60405180910390fd5b60006111b5611928565b905060008151116111d55760405180602001604052806000815250611200565b806111df8461193f565b6040516020016111f0929190612bee565b6040516020818303038152906040525b915050919050565b6000806009600c9054906101000a900473ffffffffffffffffffffffffffffffffffffffff1661123784611096565b91509150915091565b600a6020528060005260406000206000915090505481565b6000600560008473ffffffffffffffffffffffffffffffffffffffff1673ffffffffffffffffffffffffffffffffffffffff16815260200190815260200160002060008373ffffffffffffffffffffffffffffffffffffffff1673ffffffffffffffffffffffffffffffffffffffff16815260200190815260200160002060009054906101000a900460ff16905092915050565b60007f01ffc9a7000000000000000000000000000000000000000000000000000000007bffffffffffffffffffffffffffffffffffffffffffffffffffffffff1916827bffffffffffffffffffffffffffffffffffffffffffffffffffffffff1916149050919050565b816004600083815260200190815260200160002060006101000a81548173ffffffffffffffffffffffffffffffffffffffff021916908373ffffffffffffffffffffffffffffffffffffffff160217905550808273ffffffffffffffffffffffffffffffffffffffff166113c983610ddb565b73ffffffffffffffffffffffffffffffffffffffff167f8c5be1e5ebec7d5bd14f71427d1e84f3dd0314c0f7b2291e5b200ac8c7c3b92560405160405180910390a45050565b60008061141b83610ddb565b90508073ffffffffffffffffffffffffffffffffffffffff168473ffffffffffffffffffffffffffffffffffffffff16148061145d575061145c8185611258565b5b8061149b57508373ffffffffffffffffffffffffffffffffffffffff16611483846106d0565b73ffffffffffffffffffffffffffffffffffffffff16145b91505092915050565b8273ffffffffffffffffffffffffffffffffffffffff166114c482610ddb565b73ffffffffffffffffffffffffffffffffffffffff161461151a576040517f08c379a000000000000000000000000000000000000000000000000000000000815260040161151190612c84565b60405180910390fd5b600073ffffffffffffffffffffffffffffffffffffffff168273ffffffffffffffffffffffffffffffffffffffff1603611589576040517f08c379a000000000000000000000000000000000000000000000000000000000815260040161158090612d16565b60405180910390fd5b611594600082611356565b6001600360008573ffffffffffffffffffffffffffffffffffffffff1673ffffffffffffffffffffffffffffffffffffffff16815260200190815260200160002060008282546115e4919061295a565b925050819055506001600360008473ffffffffffffffffffffffffffffffffffffffff1673ffffffffffffffffffffffffffffffffffffffff168152602001908152602001600020600082825461163b91906126dd565b92505081905550816002600083815260200190815260200160002060006101000a81548173ffffffffffffffffffffffffffffffffffffffff021916908373ffffffffffffffffffffffffffffffffffffffff160217905550808273ffffffffffffffffffffffffffffffffffffffff168473ffffffffffffffffffffffffffffffffffffffff167fddf252ad1be2c89b69c2b068fc378daa952ba7f163c4a11628f55a4df523b3ef60405160405180910390a4505050565b8173ffffffffffffffffffffffffffffffffffffffff168373ffffffffffffffffffffffffffffffffffffffff1603611762576040517f08c379a000000000000000000000000000000000000000000000000000000000815260040161175990612d82565b60405180910390fd5b80600560008573ffffffffffffffffffffffffffffffffffffffff1673ffffffffffffffffffffffffffffffffffffffff16815260200190815260200160002060008473ffffffffffffffffffffffffffffffffffffffff1673ffffffffffffffffffffffffffffffffffffffff16815260200190815260200160002060006101000a81548160ff0219169083151502179055508173ffffffffffffffffffffffffffffffffffffffff168373ffffffffffffffffffffffffffffffffffffffff167f17307eab39ab6107e8899845ad3d59bd9653f200f220920489ca2b5937696c31836040516118539190611d19565b60405180910390a3505050565b61186b8484846114a4565b61187784848484611a9f565b6118b6576040517f08c379a00000000000000000000000000000000000000000000000000000000081526004016118ad90612e14565b60405180910390fd5b50505050565b60008073ffffffffffffffffffffffffffffffffffffffff166002600084815260200190815260200160002060009054906101000a900473ffffffffffffffffffffffffffffffffffffffff1673ffffffffffffffffffffffffffffffffffffffff1614159050919050565b606060405180602001604052806000815250905090565b606060008203611986576040518060400160405280600181526020017f30000000000000000000000000000000000000000000000000000000000000008152509050611a9a565b600082905060005b600082146119b85780806119a190612762565b915050600a826119b19190612aef565b915061198e565b60008167ffffffffffffffff8111156119d4576119d3612183565b5b6040519080825280601f01601f191660200182016040528015611a065781602001600182028036833780820191505090505b5090505b60008514611a9357600182611a1f919061295a565b9150600a85611a2e9190612e34565b6030611a3a91906126dd565b60f81b818381518110611a5057611a4f612733565b5b60200101907effffffffffffffffffffffffffffffffffffffffffffffffffffffffffffff1916908160001a905350600a85611a8c9190612aef565b9450611a0a565b8093505050505b919050565b6000611ac08473ffffffffffffffffffffffffffffffffffffffff16611c1f565b15611c12578373ffffffffffffffffffffffffffffffffffffffff1663150b7a02338786866040518563ffffffff1660e01b8152600401611b049493929190612eba565b6020604051808303816000875af1925050508015611b4057506040513d601f19601f82011682018060405250810190611b3d9190612f1b565b60015b611bc2573d8060008114611b70576040519150601f19603f3d011682016040523d82523d6000602084013e611b75565b606091505b506000815103611bba576040517f08c379a0000000000000000000000000000000000000000000000000000000008152600401611bb190612e14565b60405180910390fd5b805181602001fd5b63150b7a0260e01b7bffffffffffffffffffffffffffffffffffffffffffffffffffffffff1916817bffffffffffffffffffffffffffffffffffffffffffffffffffffffff191614915050611c17565b600190505b949350505050565b6000808273ffffffffffffffffffffffffffffffffffffffff163b119050919050565b604051806101400160405280600a90602082028036833780820191505090505090565b6000604051905090565b600080fd5b600080fd5b60007fffffffff0000000000000000000000000000000000000000000000000000000082169050919050565b611cae81611c79565b8114611cb957600080fd5b50565b600081359050611ccb81611ca5565b92915050565b600060208284031215611ce757611ce6611c6f565b5b6000611cf584828501611cbc565b91505092915050565b60008115159050919050565b611d1381611cfe565b82525050565b6000602082019050611d2e6000830184611d0a565b92915050565b6000819050919050565b611d4781611d34565b8114611d5257600080fd5b50565b600081359050611d6481611d3e565b92915050565b600060208284031215611d8057611d7f611c6f565b5b6000611d8e84828501611d55565b91505092915050565b600073ffffffffffffffffffffffffffffffffffffffff82169050919050565b6000611dc282611d97565b9050919050565b611dd281611db7565b82525050565b6000602082019050611ded6000830184611dc9565b92915050565b611dfc81611db7565b8114611e0757600080fd5b50565b600081359050611e1981611df3565b92915050565b60008060408385031215611e3657611e35611c6f565b5b6000611e4485828601611e0a565b9250506020611e5585828601611d55565b9150509250929050565b60008060408385031215611e7657611e75611c6f565b5b6000611e8485828601611d55565b9250506020611e9585828601611d55565b9150509250929050565b600080600060608486031215611eb857611eb7611c6f565b5b6000611ec686828701611e0a565b9350506020611ed786828701611e0a565b9250506040611ee886828701611d55565b9150509250925092565b600081519050919050565b600082825260208201905092915050565b60005b83811015611f2c578082015181840152602081019050611f11565b83811115611f3b576000848401525b50505050565b6000601f19601f8301169050919050565b6000611f5d82611ef2565b611f678185611efd565b9350611f77818560208601611f0e565b611f8081611f41565b840191505092915050565b60006020820190508181036000830152611fa58184611f52565b905092915050565b600060208284031215611fc357611fc2611c6f565b5b6000611fd184828501611e0a565b91505092915050565b6000600a9050919050565b600081905092915050565b6000819050919050565b61200381611d34565b82525050565b60006120158383611ffa565b60208301905092915050565b6000602082019050919050565b61203781611fda565b6120418184611fe5565b925061204c82611ff0565b8060005b8381101561207d5781516120648782612009565b965061206f83612021565b925050600181019050612050565b505050505050565b60006101408201905061209b600083018461202e565b92915050565b6120aa81611d34565b82525050565b60006020820190506120c560008301846120a1565b92915050565b60006bffffffffffffffffffffffff82169050919050565b6120ec816120cb565b82525050565b600060208201905061210760008301846120e3565b92915050565b61211681611cfe565b811461212157600080fd5b50565b6000813590506121338161210d565b92915050565b600080604083850312156121505761214f611c6f565b5b600061215e85828601611e0a565b925050602061216f85828601612124565b9150509250929050565b600080fd5b600080fd5b7f4e487b7100000000000000000000000000000000000000000000000000000000600052604160045260246000fd5b6121bb82611f41565b810181811067ffffffffffffffff821117156121da576121d9612183565b5b80604052505050565b60006121ed611c65565b90506121f982826121b2565b919050565b600067ffffffffffffffff82111561221957612218612183565b5b61222282611f41565b9050602081019050919050565b82818337600083830152505050565b600061225161224c846121fe565b6121e3565b90508281526020810184848401111561226d5761226c61217e565b5b61227884828561222f565b509392505050565b600082601f83011261229557612294612179565b5b81356122a584826020860161223e565b91505092915050565b600080600080608085870312156122c8576122c7611c6f565b5b60006122d687828801611e0a565b94505060206122e787828801611e0a565b93505060406122f887828801611d55565b925050606085013567ffffffffffffffff81111561231957612318611c74565b5b61232587828801612280565b91505092959194509250565b60006040820190506123466000830185611dc9565b61235360208301846120a1565b9392505050565b6000806040838503121561237157612370611c6f565b5b600061237f85828601611e0a565b925050602061239085828601611e0a565b9150509250929050565b7f4552433732313a20417070726f76616c20746f2063757272656e74206f776e6560008201527f7200000000000000000000000000000000000000000000000000000000000000602082015250565b60006123f6602183611efd565b91506124018261239a565b604082019050919050565b60006020820190508181036000830152612425816123e9565b9050919050565b7f4552433732313a20617070726f76652063616c6c6572206973206e6f7420746f60008201527f6b656e206f776e6572206e6f7220617070726f76656420666f7220616c6c0000602082015250565b6000612488603e83611efd565b91506124938261242c565b604082019050919050565b600060208201905081810360008301526124b78161247b565b9050919050565b7f53656e646572206973206e6f7420616c6c6f77656420666f722074686973206160008201527f6374696f6e000000000000000000000000000000000000000000000000000000602082015250565b600061251a602583611efd565b9150612525826124be565b604082019050919050565b600060208201905081810360008301526125498161250d565b9050919050565b7f50726963652073686f756c642062652067726561746572207468616e20300000600082015250565b6000612586601e83611efd565b915061259182612550565b602082019050919050565b600060208201905081810360008301526125b581612579565b9050919050565b7f4552433732313a2063616c6c6572206973206e6f7420746f6b656e206f776e6560008201527f72206e6f7220617070726f766564000000000000000000000000000000000000602082015250565b6000612618602e83611efd565b9150612623826125bc565b604082019050919050565b600060208201905081810360008301526126478161260b565b9050919050565b7f4e487b7100000000000000000000000000000000000000000000000000000000600052602260045260246000fd5b6000600282049050600182168061269557607f821691505b6020821081036126a8576126a761264e565b5b50919050565b7f4e487b7100000000000000000000000000000000000000000000000000000000600052601160045260246000fd5b60006126e882611d34565b91506126f383611d34565b9250827fffffffffffffffffffffffffffffffffffffffffffffffffffffffffffffffff03821115612728576127276126ae565b5b828201905092915050565b7f4e487b7100000000000000000000000000000000000000000000000000000000600052603260045260246000fd5b600061276d82611d34565b91507fffffffffffffffffffffffffffffffffffffffffffffffffffffffffffffffff820361279f5761279e6126ae565b5b600182019050919050565b7f4e6f742076616c696420666f7220627579696e67000000000000000000000000600082015250565b60006127e0601483611efd565b91506127eb826127aa565b602082019050919050565b6000602082019050818103600083015261280f816127d3565b9050919050565b7f4e46543a2056616c7565206e6f7420657175616c20746f20746865207072696360008201527f652e000000000000000000000000000000000000000000000000000000000000602082015250565b6000612872602283611efd565b915061287d82612816565b604082019050919050565b600060208201905081810360008301526128a181612865565b9050919050565b600081905092915050565b50565b60006128c36000836128a8565b91506128ce826128b3565b600082019050919050565b60006128e4826128b6565b9150819050919050565b7f5472616e73616374696f6e206661696c65640000000000000000000000000000600082015250565b6000612924601283611efd565b915061292f826128ee565b602082019050919050565b6000602082019050818103600083015261295381612917565b9050919050565b600061296582611d34565b915061297083611d34565b925082821015612983576129826126ae565b5b828203905092915050565b7f4552433732313a20496e76616c696420746f6b656e2049440000000000000000600082015250565b60006129c4601883611efd565b91506129cf8261298e565b602082019050919050565b600060208201905081810360008301526129f3816129b7565b9050919050565b7f4552433732313a204e6f7420612076616c6964206f776e657200000000000000600082015250565b6000612a30601983611efd565b9150612a3b826129fa565b602082019050919050565b60006020820190508181036000830152612a5f81612a23565b9050919050565b6000612a7182611d34565b9150612a7c83611d34565b9250817fffffffffffffffffffffffffffffffffffffffffffffffffffffffffffffffff0483118215151615612ab557612ab46126ae565b5b828202905092915050565b7f4e487b7100000000000000000000000000000000000000000000000000000000600052601260045260246000fd5b6000612afa82611d34565b9150612b0583611d34565b925082612b1557612b14612ac0565b5b828204905092915050565b7f4552433732313a2055524920717565727920666f7220616e20696e76616c696460008201527f20746f6b656e0000000000000000000000000000000000000000000000000000602082015250565b6000612b7c602683611efd565b9150612b8782612b20565b604082019050919050565b60006020820190508181036000830152612bab81612b6f565b9050919050565b600081905092915050565b6000612bc882611ef2565b612bd28185612bb2565b9350612be2818560208601611f0e565b80840191505092915050565b6000612bfa8285612bbd565b9150612c068284612bbd565b91508190509392505050565b7f4552433732313a207472616e736665722066726f6d20696e636f72726563742060008201527f6f776e6572000000000000000000000000000000000000000000000000000000602082015250565b6000612c6e602583611efd565b9150612c7982612c12565b604082019050919050565b60006020820190508181036000830152612c9d81612c61565b9050919050565b7f4552433732313a207472616e7366657220746f20746865207a65726f2061646460008201527f7265737300000000000000000000000000000000000000000000000000000000602082015250565b6000612d00602483611efd565b9150612d0b82612ca4565b604082019050919050565b60006020820190508181036000830152612d2f81612cf3565b9050919050565b7f4552433732313a20617070726f766520746f2063616c6c657200000000000000600082015250565b6000612d6c601983611efd565b9150612d7782612d36565b602082019050919050565b60006020820190508181036000830152612d9b81612d5f565b9050919050565b7f4552433732313a207472616e7366657220746f206e6f6e20455243373231526560008201527f63656976657220696d706c656d656e7465720000000000000000000000000000602082015250565b6000612dfe603283611efd565b9150612e0982612da2565b604082019050919050565b60006020820190508181036000830152612e2d81612df1565b9050919050565b6000612e3f82611d34565b9150612e4a83611d34565b925082612e5a57612e59612ac0565b5b828206905092915050565b600081519050919050565b600082825260208201905092915050565b6000612e8c82612e65565b612e968185612e70565b9350612ea6818560208601611f0e565b612eaf81611f41565b840191505092915050565b6000608082019050612ecf6000830187611dc9565b612edc6020830186611dc9565b612ee960408301856120a1565b8181036060830152612efb8184612e81565b905095945050505050565b600081519050612f1581611ca5565b92915050565b600060208284031215612f3157612f30611c6f565b5b6000612f3f84828501612f06565b9150509291505056fea26469706673582212206b4f3d862b4a2098e5132a1df5945792e27dd5edeec2ace1d77e4f82da54e75a64736f6c634300080f0033a2646970667358221220f1b76d457e7926dde1eb8e0180d1d788830a31bd52a39279400881f30fdbf5f064736f6c634300080f0033",
  "immutableReferences": {},
  "source": "// SPDX-License-Identifier: MIT\r\npragma solidity ^0.8.0;\r\n\r\nimport \"./NFTCollection.sol\";\r\ncontract NFTFactory{\r\n    mapping(address => address[]) private collections;\r\n    address[] private collectionList;\r\n\r\n    function createCollection(string memory _name , string memory _symbol , string memory _baseURI , \r\n                uint256 _count , uint96 _royaltyFeesInBips , address _royaltyAddress) external{\r\n                    NFTCollection newCollection = new NFTCollection(_name , _symbol , msg.sender , _baseURI ,\r\n                                                                    _count , _royaltyFeesInBips , _royaltyAddress);\r\n                    collectionList.push(address(newCollection));\r\n                    collections[msg.sender].push(address(newCollection));\r\n                }\r\n            \r\n    function getCollections() external view returns(address[] memory){\r\n        return collectionList;\r\n    }\r\n\r\n    function getCollection(address _artist) view external returns(address[] memory){\r\n        return collections[_artist];\r\n    }\r\n}",
  "sourcePath": "C:\\Users\\Asus\\Documents\\Web3\\opensea\\src\\contracts\\NFTFactory.sol",
  "compiler": {
    "name": "solc",
    "version": "0.8.15+commit.e14f2714.Emscripten.clang"
  },
  "schemaVersion": "3.4.4",
  "updatedAt": "2022-06-29T18:14:00.681Z",
  "networkType": "ethereum",
  "devdoc": {
    "kind": "dev",
    "methods": {},
    "version": 1
  },
  "userdoc": {
    "kind": "user",
    "methods": {},
    "version": 1
  }
}